{"contracts/StakingRewards.sol":{"StakingRewards":{"abi":[{"inputs":[{"internalType":"address","name":"_stakingToken","type":"address"},{"internalType":"address","name":"_rewardToken","type":"address"}],"stateMutability":"nonpayable","type":"constructor"},{"inputs":[],"name":"MAX_AMOUNT_STAKE","outputs":[{"internalType":"uint256","name":"","type":"uint256"}],"stateMutability":"view","type":"function"},{"inputs":[],"name":"MAX_NUM_OF_TOKENS_IN_POOL","outputs":[{"internalType":"uint256","name":"","type":"uint256"}],"stateMutability":"view","type":"function"},{"inputs":[{"internalType":"address","name":"","type":"address"}],"name":"balanceOf","outputs":[{"internalType":"uint256","name":"","type":"uint256"}],"stateMutability":"view","type":"function"},{"inputs":[{"internalType":"uint256","name":"_amount","type":"uint256"}],"name":"changePoolLimit","outputs":[],"stateMutability":"nonpayable","type":"function"},{"inputs":[{"internalType":"uint256","name":"_amount","type":"uint256"}],"name":"changeStakeLimit","outputs":[],"stateMutability":"nonpayable","type":"function"},{"inputs":[],"name":"duration","outputs":[{"internalType":"uint256","name":"","type":"uint256"}],"stateMutability":"view","type":"function"},{"inputs":[{"internalType":"address","name":"_account","type":"address"}],"name":"earned","outputs":[{"internalType":"uint256","name":"","type":"uint256"}],"stateMutability":"view","type":"function"},{"inputs":[],"name":"finishAt","outputs":[{"internalType":"uint256","name":"","type":"uint256"}],"stateMutability":"view","type":"function"},{"inputs":[],"name":"getDuration","outputs":[{"internalType":"uint256","name":"","type":"uint256"}],"stateMutability":"view","type":"function"},{"inputs":[],"name":"getFinishAt","outputs":[{"internalType":"uint256","name":"","type":"uint256"}],"stateMutability":"view","type":"function"},{"inputs":[],"name":"getPoolLimit","outputs":[{"internalType":"uint256","name":"","type":"uint256"}],"stateMutability":"view","type":"function"},{"inputs":[],"name":"getRewardRate","outputs":[{"internalType":"uint256","name":"","type":"uint256"}],"stateMutability":"view","type":"function"},{"inputs":[],"name":"getStakeLimit","outputs":[{"internalType":"uint256","name":"","type":"uint256"}],"stateMutability":"view","type":"function"},{"inputs":[],"name":"getTokensDepositedForRewards","outputs":[{"internalType":"uint256","name":"","type":"uint256"}],"stateMutability":"view","type":"function"},{"inputs":[],"name":"getTotalSupply","outputs":[{"internalType":"uint256","name":"","type":"uint256"}],"stateMutability":"view","type":"function"},{"inputs":[],"name":"getUpdatedAt","outputs":[{"internalType":"uint256","name":"","type":"uint256"}],"stateMutability":"view","type":"function"},{"inputs":[],"name":"lastTimeRewardApplicable","outputs":[{"internalType":"uint256","name":"","type":"uint256"}],"stateMutability":"view","type":"function"},{"inputs":[{"internalType":"uint256","name":"_amount","type":"uint256"},{"internalType":"uint256","name":"_duration","type":"uint256"}],"name":"notifyRewardAmount","outputs":[],"stateMutability":"nonpayable","type":"function"},{"inputs":[],"name":"owner","outputs":[{"internalType":"address","name":"","type":"address"}],"stateMutability":"view","type":"function"},{"inputs":[{"internalType":"address","name":"_tokenAddress","type":"address"},{"internalType":"uint256","name":"_tokenAmount","type":"uint256"}],"name":"recoverERC20","outputs":[],"stateMutability":"nonpayable","type":"function"},{"inputs":[],"name":"rewardPerToken","outputs":[{"internalType":"uint256","name":"","type":"uint256"}],"stateMutability":"view","type":"function"},{"inputs":[],"name":"rewardPerTokenStored","outputs":[{"internalType":"uint256","name":"","type":"uint256"}],"stateMutability":"view","type":"function"},{"inputs":[],"name":"rewardRate","outputs":[{"internalType":"uint256","name":"","type":"uint256"}],"stateMutability":"view","type":"function"},{"inputs":[{"internalType":"address","name":"","type":"address"}],"name":"rewards","outputs":[{"internalType":"uint256","name":"","type":"uint256"}],"stateMutability":"view","type":"function"},{"inputs":[],"name":"rewardsToken","outputs":[{"internalType":"contract IERC20","name":"","type":"address"}],"stateMutability":"view","type":"function"},{"inputs":[],"name":"secondsLeftTillNewRewards","outputs":[{"internalType":"uint256","name":"","type":"uint256"}],"stateMutability":"view","type":"function"},{"inputs":[{"internalType":"uint256","name":"_amount","type":"uint256"}],"name":"stake","outputs":[],"stateMutability":"nonpayable","type":"function"},{"inputs":[],"name":"stakingToken","outputs":[{"internalType":"contract IERC20","name":"","type":"address"}],"stateMutability":"view","type":"function"},{"inputs":[],"name":"totalSupply","outputs":[{"internalType":"uint256","name":"","type":"uint256"}],"stateMutability":"view","type":"function"},{"inputs":[],"name":"updatedAt","outputs":[{"internalType":"uint256","name":"","type":"uint256"}],"stateMutability":"view","type":"function"},{"inputs":[{"internalType":"address","name":"","type":"address"}],"name":"userRewardPerTokenPaid","outputs":[{"internalType":"uint256","name":"","type":"uint256"}],"stateMutability":"view","type":"function"},{"inputs":[{"internalType":"uint256","name":"_amount","type":"uint256"}],"name":"withdraw","outputs":[],"stateMutability":"nonpayable","type":"function"},{"inputs":[],"name":"withdrawReward","outputs":[],"stateMutability":"nonpayable","type":"function"}],"devdoc":{"author":"VAIOT team.","details":"This contract allows for updating the duration of  reward period at any given moment","kind":"dev","methods":{"changePoolLimit(uint256)":{"params":{"_amount":"- the maximum amount of tokens that the whole staking pool can stake in WEI"}},"changeStakeLimit(uint256)":{"params":{"_amount":"- the maximum amount a person can stake at once in WEI"}},"constructor":{"params":{"_rewardToken":"- address of the reward token","_stakingToken":"- address of the staking token"}},"notifyRewardAmount(uint256,uint256)":{"details":"this function is a modified version of the Synthetix ERC20 Staking implementation - it allowsthe owner to change the duration before the last one ends - keep in mind in the next period it will give outthe _amount + remaining rewards from the last period that were not given out","params":{"_amount":"- amount of tokens that will be given out as rewards during the given period","_duration":"- duration of the next reward period in seconds"}},"recoverERC20(address,uint256)":{"params":{"_tokenAddress":"- ERC20 address of the token","_tokenAmount":"- amount of tokens"}},"stake(uint256)":{"details":"remember to approve the token first from the frontendwhen users stake tokens updateReward modifier is fired for them","params":{"_amount":"- amount of tokens to stake in WEI"}},"withdraw(uint256)":{"details":"when users withdraw tokens updateReward modifier is fired for them","params":{"_amount":"- amount of tokens to withdraw in WEI"}},"withdrawReward()":{"details":"when users withdraw rewards updateReward modifier is fired for them"}},"title":"ERC20 Staking Contract","version":1},"evm":{"bytecode":{"linkReferences":{},"object":"60c06040523480156200001157600080fd5b50604051620022353803806200223583398181016040528101906200003791906200015a565b600160008190555033600160006101000a81548173ffffffffffffffffffffffffffffffffffffffff021916908373ffffffffffffffffffffffffffffffffffffffff1602179055508173ffffffffffffffffffffffffffffffffffffffff1660808173ffffffffffffffffffffffffffffffffffffffff16815250508073ffffffffffffffffffffffffffffffffffffffff1660a08173ffffffffffffffffffffffffffffffffffffffff16815250505050620001a1565b600080fd5b600073ffffffffffffffffffffffffffffffffffffffff82169050919050565b60006200012282620000f5565b9050919050565b620001348162000115565b81146200014057600080fd5b50565b600081519050620001548162000129565b92915050565b60008060408385031215620001745762000173620000f0565b5b6000620001848582860162000143565b9250506020620001978582860162000143565b9150509250929050565b60805160a051612044620001f1600039600081816109590152818161153201526116fb015260008181610c0901528181610d7c01528181610ef90152818161127a01526115e101526120446000f3fe608060405234801561001057600080fd5b50600436106101fa5760003560e01c806380faa57d1161011a578063c4e41b22116100ad578063d1af0c7d1161007c578063d1af0c7d1461056f578063df136d651461058d578063e8355853146105ab578063f7a54c80146105c9578063faed65ce146105e7576101fa565b8063c4e41b221461050b578063c885bc5814610529578063cb6aad9c14610533578063cd3daf9d14610551576101fa565b80638da5cb5b116100e95780638da5cb5b14610495578063a694fc3a146104b3578063ad2e8c9b146104cf578063bcebf00d146104ed576101fa565b806380faa57d1461040d57806382a808901461042b5780638980f11f146104495780638b87634714610465576101fa565b806363760f73116101925780637519ab50116101615780637519ab501461039757806377099928146103b55780637b0a47ee146103d15780637e1a3786146103ef576101fa565b806363760f731461030f57806367d3b4881461032b57806370a082311461034957806372f702f314610379576101fa565b8063246132f9116101ce578063246132f91461029b5780632e1a7d4d146102b75780633d07dfec146102d357806340224d19146102f1576101fa565b80628cc262146101ff5780630700037d1461022f5780630fb5a6b41461025f57806318160ddd1461027d575b600080fd5b61021960048036038101906102149190611833565b610605565b6040516102269190611879565b60405180910390f35b61024960048036038101906102449190611833565b610707565b6040516102569190611879565b60405180910390f35b61026761071f565b6040516102749190611879565b60405180910390f35b610285610725565b6040516102929190611879565b60405180910390f35b6102b560048036038101906102b091906118c0565b61072b565b005b6102d160048036038101906102cc9190611900565b610a69565b005b6102db610cb2565b6040516102e89190611879565b60405180910390f35b6102f9610cb8565b6040516103069190611879565b60405180910390f35b61032960048036038101906103249190611900565b610cc2565b005b610333610d5c565b6040516103409190611879565b60405180910390f35b610363600480360381019061035e9190611833565b610d62565b6040516103709190611879565b60405180910390f35b610381610d7a565b60405161038e919061198c565b60405180910390f35b61039f610d9e565b6040516103ac9190611879565b60405180910390f35b6103cf60048036038101906103ca9190611900565b610da4565b005b6103d9610e3e565b6040516103e69190611879565b60405180910390f35b6103f7610e44565b6040516104049190611879565b60405180910390f35b610415610e4e565b6040516104229190611879565b60405180910390f35b610433610e61565b6040516104409190611879565b60405180910390f35b610463600480360381019061045e91906119a7565b610e67565b005b61047f600480360381019061047a9190611833565b61102a565b60405161048c9190611879565b60405180910390f35b61049d611042565b6040516104aa91906119f6565b60405180910390f35b6104cd60048036038101906104c89190611900565b611068565b005b6104d7611394565b6040516104e49190611879565b60405180910390f35b6104f561139e565b6040516105029190611879565b60405180910390f35b6105136113a8565b6040516105209190611879565b60405180910390f35b6105316113b2565b005b61053b6115dc565b6040516105489190611879565b60405180910390f35b61055961168f565b6040516105669190611879565b60405180910390f35b6105776116f9565b604051610584919061198c565b60405180910390f35b61059561171d565b6040516105a29190611879565b60405180910390f35b6105b3611723565b6040516105c09190611879565b60405180910390f35b6105d161172d565b6040516105de9190611879565b60405180910390f35b6105ef611737565b6040516105fc9190611879565b60405180910390f35b6000600b60008373ffffffffffffffffffffffffffffffffffffffff1673ffffffffffffffffffffffffffffffffffffffff16815260200190815260200160002054670de0b6b3a7640000600a60008573ffffffffffffffffffffffffffffffffffffffff1673ffffffffffffffffffffffffffffffffffffffff1681526020019081526020016000205461069861168f565b6106a29190611a40565b600c60008673ffffffffffffffffffffffffffffffffffffffff1673ffffffffffffffffffffffffffffffffffffffff168152602001908152602001600020546106ec9190611a74565b6106f69190611ae5565b6107009190611b16565b9050919050565b600b6020528060005260406000206000915090505481565b60025481565b60075481565b600160009054906101000a900473ffffffffffffffffffffffffffffffffffffffff1673ffffffffffffffffffffffffffffffffffffffff163373ffffffffffffffffffffffffffffffffffffffff16146107bb576040517f08c379a00000000000000000000000000000000000000000000000000000000081526004016107b290611ba7565b60405180910390fd5b60006107c561168f565b6006819055506107d3610e4e565b600481905550600073ffffffffffffffffffffffffffffffffffffffff168173ffffffffffffffffffffffffffffffffffffffff16146108a05761081681610605565b600b60008373ffffffffffffffffffffffffffffffffffffffff1673ffffffffffffffffffffffffffffffffffffffff16815260200190815260200160002081905550600654600a60008373ffffffffffffffffffffffffffffffffffffffff1673ffffffffffffffffffffffffffffffffffffffff168152602001908152602001600020819055505b6000600254036108b257816002819055505b60035442106108d25781836108c79190611ae5565b600581905550610912565b6000600554426003546108e59190611a40565b6108ef9190611a74565b905060025481856109009190611b16565b61090a9190611ae5565b600581905550505b600060055411610957576040517f08c379a000000000000000000000000000000000000000000000000000000000815260040161094e90611c13565b60405180910390fd5b7f000000000000000000000000000000000000000000000000000000000000000073ffffffffffffffffffffffffffffffffffffffff166370a08231306040518263ffffffff1660e01b81526004016109b091906119f6565b602060405180830381865afa1580156109cd573d6000803e3d6000fd5b505050506040513d601f19601f820116820180604052508101906109f19190611c48565b600254600554610a019190611a74565b1115610a42576040517f08c379a0000000000000000000000000000000000000000000000000000000008152600401610a3990611cc1565b60405180910390fd5b8160028190555060025442610a579190611b16565b60038190555042600481905550505050565b610a7161175d565b33610a7a61168f565b600681905550610a88610e4e565b600481905550600073ffffffffffffffffffffffffffffffffffffffff168173ffffffffffffffffffffffffffffffffffffffff1614610b5557610acb81610605565b600b60008373ffffffffffffffffffffffffffffffffffffffff1673ffffffffffffffffffffffffffffffffffffffff16815260200190815260200160002081905550600654600a60008373ffffffffffffffffffffffffffffffffffffffff1673ffffffffffffffffffffffffffffffffffffffff168152602001908152602001600020819055505b60008211610b98576040517f08c379a0000000000000000000000000000000000000000000000000000000008152600401610b8f90611d2d565b60405180910390fd5b81600c60003373ffffffffffffffffffffffffffffffffffffffff1673ffffffffffffffffffffffffffffffffffffffff1681526020019081526020016000206000828254610be79190611a40565b925050819055508160076000828254610c009190611a40565b925050819055507f000000000000000000000000000000000000000000000000000000000000000073ffffffffffffffffffffffffffffffffffffffff1663a9059cbb33846040518363ffffffff1660e01b8152600401610c62929190611d4d565b6020604051808303816000875af1158015610c81573d6000803e3d6000fd5b505050506040513d601f19601f82011682018060405250810190610ca59190611dae565b5050610caf6117ac565b50565b60095481565b6000600354905090565b600160009054906101000a900473ffffffffffffffffffffffffffffffffffffffff1673ffffffffffffffffffffffffffffffffffffffff163373ffffffffffffffffffffffffffffffffffffffff1614610d52576040517f08c379a0000000000000000000000000000000000000000000000000000000008152600401610d4990611ba7565b60405180910390fd5b8060098190555050565b60035481565b600c6020528060005260406000206000915090505481565b7f000000000000000000000000000000000000000000000000000000000000000081565b60045481565b600160009054906101000a900473ffffffffffffffffffffffffffffffffffffffff1673ffffffffffffffffffffffffffffffffffffffff163373ffffffffffffffffffffffffffffffffffffffff1614610e34576040517f08c379a0000000000000000000000000000000000000000000000000000000008152600401610e2b90611ba7565b60405180910390fd5b8060088190555050565b60055481565b6000600554905090565b6000610e5c600354426117b6565b905090565b60085481565b600160009054906101000a900473ffffffffffffffffffffffffffffffffffffffff1673ffffffffffffffffffffffffffffffffffffffff163373ffffffffffffffffffffffffffffffffffffffff1614610ef7576040517f08c379a0000000000000000000000000000000000000000000000000000000008152600401610eee90611ba7565b60405180910390fd5b7f000000000000000000000000000000000000000000000000000000000000000073ffffffffffffffffffffffffffffffffffffffff168273ffffffffffffffffffffffffffffffffffffffff1603610f85576040517f08c379a0000000000000000000000000000000000000000000000000000000008152600401610f7c90611e4d565b60405180910390fd5b8173ffffffffffffffffffffffffffffffffffffffff1663a9059cbb600160009054906101000a900473ffffffffffffffffffffffffffffffffffffffff16836040518363ffffffff1660e01b8152600401610fe2929190611d4d565b6020604051808303816000875af1158015611001573d6000803e3d6000fd5b505050506040513d601f19601f820116820180604052508101906110259190611dae565b505050565b600a6020528060005260406000206000915090505481565b600160009054906101000a900473ffffffffffffffffffffffffffffffffffffffff1681565b61107061175d565b3361107961168f565b600681905550611087610e4e565b600481905550600073ffffffffffffffffffffffffffffffffffffffff168173ffffffffffffffffffffffffffffffffffffffff1614611154576110ca81610605565b600b60008373ffffffffffffffffffffffffffffffffffffffff1673ffffffffffffffffffffffffffffffffffffffff16815260200190815260200160002081905550600654600a60008373ffffffffffffffffffffffffffffffffffffffff1673ffffffffffffffffffffffffffffffffffffffff168152602001908152602001600020819055505b60008211611197576040517f08c379a000000000000000000000000000000000000000000000000000000000815260040161118e90611d2d565b60405180910390fd5b60085482600c60003373ffffffffffffffffffffffffffffffffffffffff1673ffffffffffffffffffffffffffffffffffffffff168152602001908152602001600020546111e59190611b16565b1115611226576040517f08c379a000000000000000000000000000000000000000000000000000000000815260040161121d90611eb9565b60405180910390fd5b600954826007546112379190611b16565b1115611278576040517f08c379a000000000000000000000000000000000000000000000000000000000815260040161126f90611f4b565b60405180910390fd5b7f000000000000000000000000000000000000000000000000000000000000000073ffffffffffffffffffffffffffffffffffffffff166323b872dd3330856040518463ffffffff1660e01b81526004016112d593929190611f6b565b6020604051808303816000875af11580156112f4573d6000803e3d6000fd5b505050506040513d601f19601f820116820180604052508101906113189190611dae565b5081600c60003373ffffffffffffffffffffffffffffffffffffffff1673ffffffffffffffffffffffffffffffffffffffff16815260200190815260200160002060008282546113689190611b16565b9250508190555081600760008282546113819190611b16565b92505081905550506113916117ac565b50565b6000600254905090565b6000600854905090565b6000600754905090565b6113ba61175d565b336113c361168f565b6006819055506113d1610e4e565b600481905550600073ffffffffffffffffffffffffffffffffffffffff168173ffffffffffffffffffffffffffffffffffffffff161461149e5761141481610605565b600b60008373ffffffffffffffffffffffffffffffffffffffff1673ffffffffffffffffffffffffffffffffffffffff16815260200190815260200160002081905550600654600a60008373ffffffffffffffffffffffffffffffffffffffff1673ffffffffffffffffffffffffffffffffffffffff168152602001908152602001600020819055505b6000600b60003373ffffffffffffffffffffffffffffffffffffffff1673ffffffffffffffffffffffffffffffffffffffff16815260200190815260200160002054905060008111156115d0576000600b60003373ffffffffffffffffffffffffffffffffffffffff1673ffffffffffffffffffffffffffffffffffffffff168152602001908152602001600020819055507f000000000000000000000000000000000000000000000000000000000000000073ffffffffffffffffffffffffffffffffffffffff1663a9059cbb33836040518363ffffffff1660e01b815260040161158b929190611d4d565b6020604051808303816000875af11580156115aa573d6000803e3d6000fd5b505050506040513d601f19601f820116820180604052508101906115ce9190611dae565b505b50506115da6117ac565b565b6000807f000000000000000000000000000000000000000000000000000000000000000073ffffffffffffffffffffffffffffffffffffffff166370a08231306040518263ffffffff1660e01b815260040161163891906119f6565b602060405180830381865afa158015611655573d6000803e3d6000fd5b505050506040513d601f19601f820116820180604052508101906116799190611c48565b9050600754816116899190611a40565b91505090565b600080600754036116a45760065490506116f6565b600754670de0b6b3a76400006004546116bb610e4e565b6116c59190611a40565b6005546116d29190611a74565b6116dc9190611a74565b6116e69190611ae5565b6006546116f39190611b16565b90505b90565b7f000000000000000000000000000000000000000000000000000000000000000081565b60065481565b6000600454905090565b6000600954905090565b6000426003541061175557426003546117509190611a40565b611758565b60005b905090565b6002600054036117a2576040517f08c379a000000000000000000000000000000000000000000000000000000000815260040161179990611fee565b60405180910390fd5b6002600081905550565b6001600081905550565b6000818311156117c657816117c8565b825b905092915050565b600080fd5b600073ffffffffffffffffffffffffffffffffffffffff82169050919050565b6000611800826117d5565b9050919050565b611810816117f5565b811461181b57600080fd5b50565b60008135905061182d81611807565b92915050565b600060208284031215611849576118486117d0565b5b60006118578482850161181e565b91505092915050565b6000819050919050565b61187381611860565b82525050565b600060208201905061188e600083018461186a565b92915050565b61189d81611860565b81146118a857600080fd5b50565b6000813590506118ba81611894565b92915050565b600080604083850312156118d7576118d66117d0565b5b60006118e5858286016118ab565b92505060206118f6858286016118ab565b9150509250929050565b600060208284031215611916576119156117d0565b5b6000611924848285016118ab565b91505092915050565b6000819050919050565b600061195261194d611948846117d5565b61192d565b6117d5565b9050919050565b600061196482611937565b9050919050565b600061197682611959565b9050919050565b6119868161196b565b82525050565b60006020820190506119a1600083018461197d565b92915050565b600080604083850312156119be576119bd6117d0565b5b60006119cc8582860161181e565b92505060206119dd858286016118ab565b9150509250929050565b6119f0816117f5565b82525050565b6000602082019050611a0b60008301846119e7565b92915050565b7f4e487b7100000000000000000000000000000000000000000000000000000000600052601160045260246000fd5b6000611a4b82611860565b9150611a5683611860565b9250828203905081811115611a6e57611a6d611a11565b5b92915050565b6000611a7f82611860565b9150611a8a83611860565b9250828202611a9881611860565b91508282048414831517611aaf57611aae611a11565b5b5092915050565b7f4e487b7100000000000000000000000000000000000000000000000000000000600052601260045260246000fd5b6000611af082611860565b9150611afb83611860565b925082611b0b57611b0a611ab6565b5b828204905092915050565b6000611b2182611860565b9150611b2c83611860565b9250828201905080821115611b4457611b43611a11565b5b92915050565b600082825260208201905092915050565b7f6e6f7420617574686f72697a6564000000000000000000000000000000000000600082015250565b6000611b91600e83611b4a565b9150611b9c82611b5b565b602082019050919050565b60006020820190508181036000830152611bc081611b84565b9050919050565b7f7265776172642072617465203d20300000000000000000000000000000000000600082015250565b6000611bfd600f83611b4a565b9150611c0882611bc7565b602082019050919050565b60006020820190508181036000830152611c2c81611bf0565b9050919050565b600081519050611c4281611894565b92915050565b600060208284031215611c5e57611c5d6117d0565b5b6000611c6c84828501611c33565b91505092915050565b7f72657761726420616d6f756e74203e2062616c616e6365000000000000000000600082015250565b6000611cab601783611b4a565b9150611cb682611c75565b602082019050919050565b60006020820190508181036000830152611cda81611c9e565b9050919050565b7f616d6f756e74203d203000000000000000000000000000000000000000000000600082015250565b6000611d17600a83611b4a565b9150611d2282611ce1565b602082019050919050565b60006020820190508181036000830152611d4681611d0a565b9050919050565b6000604082019050611d6260008301856119e7565b611d6f602083018461186a565b9392505050565b60008115159050919050565b611d8b81611d76565b8114611d9657600080fd5b50565b600081519050611da881611d82565b92915050565b600060208284031215611dc457611dc36117d0565b5b6000611dd284828501611d99565b91505092915050565b7f43616e6e6f7420776974686472617720746865207374616b696e6720746f6b6560008201527f6e00000000000000000000000000000000000000000000000000000000000000602082015250565b6000611e37602183611b4a565b9150611e4282611ddb565b604082019050919050565b60006020820190508181036000830152611e6681611e2a565b9050919050565b7f546f6f206d756368207374616b65642100000000000000000000000000000000600082015250565b6000611ea3601083611b4a565b9150611eae82611e6d565b602082019050919050565b60006020820190508181036000830152611ed281611e96565b9050919050565b7f4d6178696d756d206e756d626572206f6620746f6b656e73207374616b65642060008201527f686173206265656e207265616368656421000000000000000000000000000000602082015250565b6000611f35603183611b4a565b9150611f4082611ed9565b604082019050919050565b60006020820190508181036000830152611f6481611f28565b9050919050565b6000606082019050611f8060008301866119e7565b611f8d60208301856119e7565b611f9a604083018461186a565b949350505050565b7f5265656e7472616e637947756172643a207265656e7472616e742063616c6c00600082015250565b6000611fd8601f83611b4a565b9150611fe382611fa2565b602082019050919050565b6000602082019050818103600083015261200781611fcb565b905091905056fea2646970667358221220f4e07baeb9a66e7e7a88d74c09b9e04d7f72d958222918eb608bacc50576c4c764736f6c63430008120033","opcodes":"PUSH1 0xC0 PUSH1 0x40 MSTORE CALLVALUE DUP1 ISZERO PUSH3 0x11 JUMPI PUSH1 0x0 DUP1 REVERT JUMPDEST POP PUSH1 0x40 MLOAD PUSH3 0x2235 CODESIZE SUB DUP1 PUSH3 0x2235 DUP4 CODECOPY DUP2 DUP2 ADD PUSH1 0x40 MSTORE DUP2 ADD SWAP1 PUSH3 0x37 SWAP2 SWAP1 PUSH3 0x15A JUMP JUMPDEST PUSH1 0x1 PUSH1 0x0 DUP2 SWAP1 SSTORE POP CALLER PUSH1 0x1 PUSH1 0x0 PUSH2 0x100 EXP DUP2 SLOAD DUP2 PUSH20 0xFFFFFFFFFFFFFFFFFFFFFFFFFFFFFFFFFFFFFFFF MUL NOT AND SWAP1 DUP4 PUSH20 0xFFFFFFFFFFFFFFFFFFFFFFFFFFFFFFFFFFFFFFFF AND MUL OR SWAP1 SSTORE POP DUP2 PUSH20 0xFFFFFFFFFFFFFFFFFFFFFFFFFFFFFFFFFFFFFFFF AND PUSH1 0x80 DUP2 PUSH20 0xFFFFFFFFFFFFFFFFFFFFFFFFFFFFFFFFFFFFFFFF AND DUP2 MSTORE POP POP DUP1 PUSH20 0xFFFFFFFFFFFFFFFFFFFFFFFFFFFFFFFFFFFFFFFF AND PUSH1 0xA0 DUP2 PUSH20 0xFFFFFFFFFFFFFFFFFFFFFFFFFFFFFFFFFFFFFFFF AND DUP2 MSTORE POP POP POP POP PUSH3 0x1A1 JUMP JUMPDEST PUSH1 0x0 DUP1 REVERT JUMPDEST PUSH1 0x0 PUSH20 0xFFFFFFFFFFFFFFFFFFFFFFFFFFFFFFFFFFFFFFFF DUP3 AND SWAP1 POP SWAP2 SWAP1 POP JUMP JUMPDEST PUSH1 0x0 PUSH3 0x122 DUP3 PUSH3 0xF5 JUMP JUMPDEST SWAP1 POP SWAP2 SWAP1 POP JUMP JUMPDEST PUSH3 0x134 DUP2 PUSH3 0x115 JUMP JUMPDEST DUP2 EQ PUSH3 0x140 JUMPI PUSH1 0x0 DUP1 REVERT JUMPDEST POP JUMP JUMPDEST PUSH1 0x0 DUP2 MLOAD SWAP1 POP PUSH3 0x154 DUP2 PUSH3 0x129 JUMP JUMPDEST SWAP3 SWAP2 POP POP JUMP JUMPDEST PUSH1 0x0 DUP1 PUSH1 0x40 DUP4 DUP6 SUB SLT ISZERO PUSH3 0x174 JUMPI PUSH3 0x173 PUSH3 0xF0 JUMP JUMPDEST JUMPDEST PUSH1 0x0 PUSH3 0x184 DUP6 DUP3 DUP7 ADD PUSH3 0x143 JUMP JUMPDEST SWAP3 POP POP PUSH1 0x20 PUSH3 0x197 DUP6 DUP3 DUP7 ADD PUSH3 0x143 JUMP JUMPDEST SWAP2 POP POP SWAP3 POP SWAP3 SWAP1 POP JUMP JUMPDEST PUSH1 0x80 MLOAD PUSH1 0xA0 MLOAD PUSH2 0x2044 PUSH3 0x1F1 PUSH1 0x0 CODECOPY PUSH1 0x0 DUP2 DUP2 PUSH2 0x959 ADD MSTORE DUP2 DUP2 PUSH2 0x1532 ADD MSTORE PUSH2 0x16FB ADD MSTORE PUSH1 0x0 DUP2 DUP2 PUSH2 0xC09 ADD MSTORE DUP2 DUP2 PUSH2 0xD7C ADD MSTORE DUP2 DUP2 PUSH2 0xEF9 ADD MSTORE DUP2 DUP2 PUSH2 0x127A ADD MSTORE PUSH2 0x15E1 ADD MSTORE PUSH2 0x2044 PUSH1 0x0 RETURN INVALID PUSH1 0x80 PUSH1 0x40 MSTORE CALLVALUE DUP1 ISZERO PUSH2 0x10 JUMPI PUSH1 0x0 DUP1 REVERT JUMPDEST POP PUSH1 0x4 CALLDATASIZE LT PUSH2 0x1FA JUMPI PUSH1 0x0 CALLDATALOAD PUSH1 0xE0 SHR DUP1 PUSH4 0x80FAA57D GT PUSH2 0x11A JUMPI DUP1 PUSH4 0xC4E41B22 GT PUSH2 0xAD JUMPI DUP1 PUSH4 0xD1AF0C7D GT PUSH2 0x7C JUMPI DUP1 PUSH4 0xD1AF0C7D EQ PUSH2 0x56F JUMPI DUP1 PUSH4 0xDF136D65 EQ PUSH2 0x58D JUMPI DUP1 PUSH4 0xE8355853 EQ PUSH2 0x5AB JUMPI DUP1 PUSH4 0xF7A54C80 EQ PUSH2 0x5C9 JUMPI DUP1 PUSH4 0xFAED65CE EQ PUSH2 0x5E7 JUMPI PUSH2 0x1FA JUMP JUMPDEST DUP1 PUSH4 0xC4E41B22 EQ PUSH2 0x50B JUMPI DUP1 PUSH4 0xC885BC58 EQ PUSH2 0x529 JUMPI DUP1 PUSH4 0xCB6AAD9C EQ PUSH2 0x533 JUMPI DUP1 PUSH4 0xCD3DAF9D EQ PUSH2 0x551 JUMPI PUSH2 0x1FA JUMP JUMPDEST DUP1 PUSH4 0x8DA5CB5B GT PUSH2 0xE9 JUMPI DUP1 PUSH4 0x8DA5CB5B EQ PUSH2 0x495 JUMPI DUP1 PUSH4 0xA694FC3A EQ PUSH2 0x4B3 JUMPI DUP1 PUSH4 0xAD2E8C9B EQ PUSH2 0x4CF JUMPI DUP1 PUSH4 0xBCEBF00D EQ PUSH2 0x4ED JUMPI PUSH2 0x1FA JUMP JUMPDEST DUP1 PUSH4 0x80FAA57D EQ PUSH2 0x40D JUMPI DUP1 PUSH4 0x82A80890 EQ PUSH2 0x42B JUMPI DUP1 PUSH4 0x8980F11F EQ PUSH2 0x449 JUMPI DUP1 PUSH4 0x8B876347 EQ PUSH2 0x465 JUMPI PUSH2 0x1FA JUMP JUMPDEST DUP1 PUSH4 0x63760F73 GT PUSH2 0x192 JUMPI DUP1 PUSH4 0x7519AB50 GT PUSH2 0x161 JUMPI DUP1 PUSH4 0x7519AB50 EQ PUSH2 0x397 JUMPI DUP1 PUSH4 0x77099928 EQ PUSH2 0x3B5 JUMPI DUP1 PUSH4 0x7B0A47EE EQ PUSH2 0x3D1 JUMPI DUP1 PUSH4 0x7E1A3786 EQ PUSH2 0x3EF JUMPI PUSH2 0x1FA JUMP JUMPDEST DUP1 PUSH4 0x63760F73 EQ PUSH2 0x30F JUMPI DUP1 PUSH4 0x67D3B488 EQ PUSH2 0x32B JUMPI DUP1 PUSH4 0x70A08231 EQ PUSH2 0x349 JUMPI DUP1 PUSH4 0x72F702F3 EQ PUSH2 0x379 JUMPI PUSH2 0x1FA JUMP JUMPDEST DUP1 PUSH4 0x246132F9 GT PUSH2 0x1CE JUMPI DUP1 PUSH4 0x246132F9 EQ PUSH2 0x29B JUMPI DUP1 PUSH4 0x2E1A7D4D EQ PUSH2 0x2B7 JUMPI DUP1 PUSH4 0x3D07DFEC EQ PUSH2 0x2D3 JUMPI DUP1 PUSH4 0x40224D19 EQ PUSH2 0x2F1 JUMPI PUSH2 0x1FA JUMP JUMPDEST DUP1 PUSH3 0x8CC262 EQ PUSH2 0x1FF JUMPI DUP1 PUSH4 0x700037D EQ PUSH2 0x22F JUMPI DUP1 PUSH4 0xFB5A6B4 EQ PUSH2 0x25F JUMPI DUP1 PUSH4 0x18160DDD EQ PUSH2 0x27D JUMPI JUMPDEST PUSH1 0x0 DUP1 REVERT JUMPDEST PUSH2 0x219 PUSH1 0x4 DUP1 CALLDATASIZE SUB DUP2 ADD SWAP1 PUSH2 0x214 SWAP2 SWAP1 PUSH2 0x1833 JUMP JUMPDEST PUSH2 0x605 JUMP JUMPDEST PUSH1 0x40 MLOAD PUSH2 0x226 SWAP2 SWAP1 PUSH2 0x1879 JUMP JUMPDEST PUSH1 0x40 MLOAD DUP1 SWAP2 SUB SWAP1 RETURN JUMPDEST PUSH2 0x249 PUSH1 0x4 DUP1 CALLDATASIZE SUB DUP2 ADD SWAP1 PUSH2 0x244 SWAP2 SWAP1 PUSH2 0x1833 JUMP JUMPDEST PUSH2 0x707 JUMP JUMPDEST PUSH1 0x40 MLOAD PUSH2 0x256 SWAP2 SWAP1 PUSH2 0x1879 JUMP JUMPDEST PUSH1 0x40 MLOAD DUP1 SWAP2 SUB SWAP1 RETURN JUMPDEST PUSH2 0x267 PUSH2 0x71F JUMP JUMPDEST PUSH1 0x40 MLOAD PUSH2 0x274 SWAP2 SWAP1 PUSH2 0x1879 JUMP JUMPDEST PUSH1 0x40 MLOAD DUP1 SWAP2 SUB SWAP1 RETURN JUMPDEST PUSH2 0x285 PUSH2 0x725 JUMP JUMPDEST PUSH1 0x40 MLOAD PUSH2 0x292 SWAP2 SWAP1 PUSH2 0x1879 JUMP JUMPDEST PUSH1 0x40 MLOAD DUP1 SWAP2 SUB SWAP1 RETURN JUMPDEST PUSH2 0x2B5 PUSH1 0x4 DUP1 CALLDATASIZE SUB DUP2 ADD SWAP1 PUSH2 0x2B0 SWAP2 SWAP1 PUSH2 0x18C0 JUMP JUMPDEST PUSH2 0x72B JUMP JUMPDEST STOP JUMPDEST PUSH2 0x2D1 PUSH1 0x4 DUP1 CALLDATASIZE SUB DUP2 ADD SWAP1 PUSH2 0x2CC SWAP2 SWAP1 PUSH2 0x1900 JUMP JUMPDEST PUSH2 0xA69 JUMP JUMPDEST STOP JUMPDEST PUSH2 0x2DB PUSH2 0xCB2 JUMP JUMPDEST PUSH1 0x40 MLOAD PUSH2 0x2E8 SWAP2 SWAP1 PUSH2 0x1879 JUMP JUMPDEST PUSH1 0x40 MLOAD DUP1 SWAP2 SUB SWAP1 RETURN JUMPDEST PUSH2 0x2F9 PUSH2 0xCB8 JUMP JUMPDEST PUSH1 0x40 MLOAD PUSH2 0x306 SWAP2 SWAP1 PUSH2 0x1879 JUMP JUMPDEST PUSH1 0x40 MLOAD DUP1 SWAP2 SUB SWAP1 RETURN JUMPDEST PUSH2 0x329 PUSH1 0x4 DUP1 CALLDATASIZE SUB DUP2 ADD SWAP1 PUSH2 0x324 SWAP2 SWAP1 PUSH2 0x1900 JUMP JUMPDEST PUSH2 0xCC2 JUMP JUMPDEST STOP JUMPDEST PUSH2 0x333 PUSH2 0xD5C JUMP JUMPDEST PUSH1 0x40 MLOAD PUSH2 0x340 SWAP2 SWAP1 PUSH2 0x1879 JUMP JUMPDEST PUSH1 0x40 MLOAD DUP1 SWAP2 SUB SWAP1 RETURN JUMPDEST PUSH2 0x363 PUSH1 0x4 DUP1 CALLDATASIZE SUB DUP2 ADD SWAP1 PUSH2 0x35E SWAP2 SWAP1 PUSH2 0x1833 JUMP JUMPDEST PUSH2 0xD62 JUMP JUMPDEST PUSH1 0x40 MLOAD PUSH2 0x370 SWAP2 SWAP1 PUSH2 0x1879 JUMP JUMPDEST PUSH1 0x40 MLOAD DUP1 SWAP2 SUB SWAP1 RETURN JUMPDEST PUSH2 0x381 PUSH2 0xD7A JUMP JUMPDEST PUSH1 0x40 MLOAD PUSH2 0x38E SWAP2 SWAP1 PUSH2 0x198C JUMP JUMPDEST PUSH1 0x40 MLOAD DUP1 SWAP2 SUB SWAP1 RETURN JUMPDEST PUSH2 0x39F PUSH2 0xD9E JUMP JUMPDEST PUSH1 0x40 MLOAD PUSH2 0x3AC SWAP2 SWAP1 PUSH2 0x1879 JUMP JUMPDEST PUSH1 0x40 MLOAD DUP1 SWAP2 SUB SWAP1 RETURN JUMPDEST PUSH2 0x3CF PUSH1 0x4 DUP1 CALLDATASIZE SUB DUP2 ADD SWAP1 PUSH2 0x3CA SWAP2 SWAP1 PUSH2 0x1900 JUMP JUMPDEST PUSH2 0xDA4 JUMP JUMPDEST STOP JUMPDEST PUSH2 0x3D9 PUSH2 0xE3E JUMP JUMPDEST PUSH1 0x40 MLOAD PUSH2 0x3E6 SWAP2 SWAP1 PUSH2 0x1879 JUMP JUMPDEST PUSH1 0x40 MLOAD DUP1 SWAP2 SUB SWAP1 RETURN JUMPDEST PUSH2 0x3F7 PUSH2 0xE44 JUMP JUMPDEST PUSH1 0x40 MLOAD PUSH2 0x404 SWAP2 SWAP1 PUSH2 0x1879 JUMP JUMPDEST PUSH1 0x40 MLOAD DUP1 SWAP2 SUB SWAP1 RETURN JUMPDEST PUSH2 0x415 PUSH2 0xE4E JUMP JUMPDEST PUSH1 0x40 MLOAD PUSH2 0x422 SWAP2 SWAP1 PUSH2 0x1879 JUMP JUMPDEST PUSH1 0x40 MLOAD DUP1 SWAP2 SUB SWAP1 RETURN JUMPDEST PUSH2 0x433 PUSH2 0xE61 JUMP JUMPDEST PUSH1 0x40 MLOAD PUSH2 0x440 SWAP2 SWAP1 PUSH2 0x1879 JUMP JUMPDEST PUSH1 0x40 MLOAD DUP1 SWAP2 SUB SWAP1 RETURN JUMPDEST PUSH2 0x463 PUSH1 0x4 DUP1 CALLDATASIZE SUB DUP2 ADD SWAP1 PUSH2 0x45E SWAP2 SWAP1 PUSH2 0x19A7 JUMP JUMPDEST PUSH2 0xE67 JUMP JUMPDEST STOP JUMPDEST PUSH2 0x47F PUSH1 0x4 DUP1 CALLDATASIZE SUB DUP2 ADD SWAP1 PUSH2 0x47A SWAP2 SWAP1 PUSH2 0x1833 JUMP JUMPDEST PUSH2 0x102A JUMP JUMPDEST PUSH1 0x40 MLOAD PUSH2 0x48C SWAP2 SWAP1 PUSH2 0x1879 JUMP JUMPDEST PUSH1 0x40 MLOAD DUP1 SWAP2 SUB SWAP1 RETURN JUMPDEST PUSH2 0x49D PUSH2 0x1042 JUMP JUMPDEST PUSH1 0x40 MLOAD PUSH2 0x4AA SWAP2 SWAP1 PUSH2 0x19F6 JUMP JUMPDEST PUSH1 0x40 MLOAD DUP1 SWAP2 SUB SWAP1 RETURN JUMPDEST PUSH2 0x4CD PUSH1 0x4 DUP1 CALLDATASIZE SUB DUP2 ADD SWAP1 PUSH2 0x4C8 SWAP2 SWAP1 PUSH2 0x1900 JUMP JUMPDEST PUSH2 0x1068 JUMP JUMPDEST STOP JUMPDEST PUSH2 0x4D7 PUSH2 0x1394 JUMP JUMPDEST PUSH1 0x40 MLOAD PUSH2 0x4E4 SWAP2 SWAP1 PUSH2 0x1879 JUMP JUMPDEST PUSH1 0x40 MLOAD DUP1 SWAP2 SUB SWAP1 RETURN JUMPDEST PUSH2 0x4F5 PUSH2 0x139E JUMP JUMPDEST PUSH1 0x40 MLOAD PUSH2 0x502 SWAP2 SWAP1 PUSH2 0x1879 JUMP JUMPDEST PUSH1 0x40 MLOAD DUP1 SWAP2 SUB SWAP1 RETURN JUMPDEST PUSH2 0x513 PUSH2 0x13A8 JUMP JUMPDEST PUSH1 0x40 MLOAD PUSH2 0x520 SWAP2 SWAP1 PUSH2 0x1879 JUMP JUMPDEST PUSH1 0x40 MLOAD DUP1 SWAP2 SUB SWAP1 RETURN JUMPDEST PUSH2 0x531 PUSH2 0x13B2 JUMP JUMPDEST STOP JUMPDEST PUSH2 0x53B PUSH2 0x15DC JUMP JUMPDEST PUSH1 0x40 MLOAD PUSH2 0x548 SWAP2 SWAP1 PUSH2 0x1879 JUMP JUMPDEST PUSH1 0x40 MLOAD DUP1 SWAP2 SUB SWAP1 RETURN JUMPDEST PUSH2 0x559 PUSH2 0x168F JUMP JUMPDEST PUSH1 0x40 MLOAD PUSH2 0x566 SWAP2 SWAP1 PUSH2 0x1879 JUMP JUMPDEST PUSH1 0x40 MLOAD DUP1 SWAP2 SUB SWAP1 RETURN JUMPDEST PUSH2 0x577 PUSH2 0x16F9 JUMP JUMPDEST PUSH1 0x40 MLOAD PUSH2 0x584 SWAP2 SWAP1 PUSH2 0x198C JUMP JUMPDEST PUSH1 0x40 MLOAD DUP1 SWAP2 SUB SWAP1 RETURN JUMPDEST PUSH2 0x595 PUSH2 0x171D JUMP JUMPDEST PUSH1 0x40 MLOAD PUSH2 0x5A2 SWAP2 SWAP1 PUSH2 0x1879 JUMP JUMPDEST PUSH1 0x40 MLOAD DUP1 SWAP2 SUB SWAP1 RETURN JUMPDEST PUSH2 0x5B3 PUSH2 0x1723 JUMP JUMPDEST PUSH1 0x40 MLOAD PUSH2 0x5C0 SWAP2 SWAP1 PUSH2 0x1879 JUMP JUMPDEST PUSH1 0x40 MLOAD DUP1 SWAP2 SUB SWAP1 RETURN JUMPDEST PUSH2 0x5D1 PUSH2 0x172D JUMP JUMPDEST PUSH1 0x40 MLOAD PUSH2 0x5DE SWAP2 SWAP1 PUSH2 0x1879 JUMP JUMPDEST PUSH1 0x40 MLOAD DUP1 SWAP2 SUB SWAP1 RETURN JUMPDEST PUSH2 0x5EF PUSH2 0x1737 JUMP JUMPDEST PUSH1 0x40 MLOAD PUSH2 0x5FC SWAP2 SWAP1 PUSH2 0x1879 JUMP JUMPDEST PUSH1 0x40 MLOAD DUP1 SWAP2 SUB SWAP1 RETURN JUMPDEST PUSH1 0x0 PUSH1 0xB PUSH1 0x0 DUP4 PUSH20 0xFFFFFFFFFFFFFFFFFFFFFFFFFFFFFFFFFFFFFFFF AND PUSH20 0xFFFFFFFFFFFFFFFFFFFFFFFFFFFFFFFFFFFFFFFF AND DUP2 MSTORE PUSH1 0x20 ADD SWAP1 DUP2 MSTORE PUSH1 0x20 ADD PUSH1 0x0 KECCAK256 SLOAD PUSH8 0xDE0B6B3A7640000 PUSH1 0xA PUSH1 0x0 DUP6 PUSH20 0xFFFFFFFFFFFFFFFFFFFFFFFFFFFFFFFFFFFFFFFF AND PUSH20 0xFFFFFFFFFFFFFFFFFFFFFFFFFFFFFFFFFFFFFFFF AND DUP2 MSTORE PUSH1 0x20 ADD SWAP1 DUP2 MSTORE PUSH1 0x20 ADD PUSH1 0x0 KECCAK256 SLOAD PUSH2 0x698 PUSH2 0x168F JUMP JUMPDEST PUSH2 0x6A2 SWAP2 SWAP1 PUSH2 0x1A40 JUMP JUMPDEST PUSH1 0xC PUSH1 0x0 DUP7 PUSH20 0xFFFFFFFFFFFFFFFFFFFFFFFFFFFFFFFFFFFFFFFF AND PUSH20 0xFFFFFFFFFFFFFFFFFFFFFFFFFFFFFFFFFFFFFFFF AND DUP2 MSTORE PUSH1 0x20 ADD SWAP1 DUP2 MSTORE PUSH1 0x20 ADD PUSH1 0x0 KECCAK256 SLOAD PUSH2 0x6EC SWAP2 SWAP1 PUSH2 0x1A74 JUMP JUMPDEST PUSH2 0x6F6 SWAP2 SWAP1 PUSH2 0x1AE5 JUMP JUMPDEST PUSH2 0x700 SWAP2 SWAP1 PUSH2 0x1B16 JUMP JUMPDEST SWAP1 POP SWAP2 SWAP1 POP JUMP JUMPDEST PUSH1 0xB PUSH1 0x20 MSTORE DUP1 PUSH1 0x0 MSTORE PUSH1 0x40 PUSH1 0x0 KECCAK256 PUSH1 0x0 SWAP2 POP SWAP1 POP SLOAD DUP2 JUMP JUMPDEST PUSH1 0x2 SLOAD DUP2 JUMP JUMPDEST PUSH1 0x7 SLOAD DUP2 JUMP JUMPDEST PUSH1 0x1 PUSH1 0x0 SWAP1 SLOAD SWAP1 PUSH2 0x100 EXP SWAP1 DIV PUSH20 0xFFFFFFFFFFFFFFFFFFFFFFFFFFFFFFFFFFFFFFFF AND PUSH20 0xFFFFFFFFFFFFFFFFFFFFFFFFFFFFFFFFFFFFFFFF AND CALLER PUSH20 0xFFFFFFFFFFFFFFFFFFFFFFFFFFFFFFFFFFFFFFFF AND EQ PUSH2 0x7BB JUMPI PUSH1 0x40 MLOAD PUSH32 0x8C379A000000000000000000000000000000000000000000000000000000000 DUP2 MSTORE PUSH1 0x4 ADD PUSH2 0x7B2 SWAP1 PUSH2 0x1BA7 JUMP JUMPDEST PUSH1 0x40 MLOAD DUP1 SWAP2 SUB SWAP1 REVERT JUMPDEST PUSH1 0x0 PUSH2 0x7C5 PUSH2 0x168F JUMP JUMPDEST PUSH1 0x6 DUP2 SWAP1 SSTORE POP PUSH2 0x7D3 PUSH2 0xE4E JUMP JUMPDEST PUSH1 0x4 DUP2 SWAP1 SSTORE POP PUSH1 0x0 PUSH20 0xFFFFFFFFFFFFFFFFFFFFFFFFFFFFFFFFFFFFFFFF AND DUP2 PUSH20 0xFFFFFFFFFFFFFFFFFFFFFFFFFFFFFFFFFFFFFFFF AND EQ PUSH2 0x8A0 JUMPI PUSH2 0x816 DUP2 PUSH2 0x605 JUMP JUMPDEST PUSH1 0xB PUSH1 0x0 DUP4 PUSH20 0xFFFFFFFFFFFFFFFFFFFFFFFFFFFFFFFFFFFFFFFF AND PUSH20 0xFFFFFFFFFFFFFFFFFFFFFFFFFFFFFFFFFFFFFFFF AND DUP2 MSTORE PUSH1 0x20 ADD SWAP1 DUP2 MSTORE PUSH1 0x20 ADD PUSH1 0x0 KECCAK256 DUP2 SWAP1 SSTORE POP PUSH1 0x6 SLOAD PUSH1 0xA PUSH1 0x0 DUP4 PUSH20 0xFFFFFFFFFFFFFFFFFFFFFFFFFFFFFFFFFFFFFFFF AND PUSH20 0xFFFFFFFFFFFFFFFFFFFFFFFFFFFFFFFFFFFFFFFF AND DUP2 MSTORE PUSH1 0x20 ADD SWAP1 DUP2 MSTORE PUSH1 0x20 ADD PUSH1 0x0 KECCAK256 DUP2 SWAP1 SSTORE POP JUMPDEST PUSH1 0x0 PUSH1 0x2 SLOAD SUB PUSH2 0x8B2 JUMPI DUP2 PUSH1 0x2 DUP2 SWAP1 SSTORE POP JUMPDEST PUSH1 0x3 SLOAD TIMESTAMP LT PUSH2 0x8D2 JUMPI DUP2 DUP4 PUSH2 0x8C7 SWAP2 SWAP1 PUSH2 0x1AE5 JUMP JUMPDEST PUSH1 0x5 DUP2 SWAP1 SSTORE POP PUSH2 0x912 JUMP JUMPDEST PUSH1 0x0 PUSH1 0x5 SLOAD TIMESTAMP PUSH1 0x3 SLOAD PUSH2 0x8E5 SWAP2 SWAP1 PUSH2 0x1A40 JUMP JUMPDEST PUSH2 0x8EF SWAP2 SWAP1 PUSH2 0x1A74 JUMP JUMPDEST SWAP1 POP PUSH1 0x2 SLOAD DUP2 DUP6 PUSH2 0x900 SWAP2 SWAP1 PUSH2 0x1B16 JUMP JUMPDEST PUSH2 0x90A SWAP2 SWAP1 PUSH2 0x1AE5 JUMP JUMPDEST PUSH1 0x5 DUP2 SWAP1 SSTORE POP POP JUMPDEST PUSH1 0x0 PUSH1 0x5 SLOAD GT PUSH2 0x957 JUMPI PUSH1 0x40 MLOAD PUSH32 0x8C379A000000000000000000000000000000000000000000000000000000000 DUP2 MSTORE PUSH1 0x4 ADD PUSH2 0x94E SWAP1 PUSH2 0x1C13 JUMP JUMPDEST PUSH1 0x40 MLOAD DUP1 SWAP2 SUB SWAP1 REVERT JUMPDEST PUSH32 0x0 PUSH20 0xFFFFFFFFFFFFFFFFFFFFFFFFFFFFFFFFFFFFFFFF AND PUSH4 0x70A08231 ADDRESS PUSH1 0x40 MLOAD DUP3 PUSH4 0xFFFFFFFF AND PUSH1 0xE0 SHL DUP2 MSTORE PUSH1 0x4 ADD PUSH2 0x9B0 SWAP2 SWAP1 PUSH2 0x19F6 JUMP JUMPDEST PUSH1 0x20 PUSH1 0x40 MLOAD DUP1 DUP4 SUB DUP2 DUP7 GAS STATICCALL ISZERO DUP1 ISZERO PUSH2 0x9CD JUMPI RETURNDATASIZE PUSH1 0x0 DUP1 RETURNDATACOPY RETURNDATASIZE PUSH1 0x0 REVERT JUMPDEST POP POP POP POP PUSH1 0x40 MLOAD RETURNDATASIZE PUSH1 0x1F NOT PUSH1 0x1F DUP3 ADD AND DUP3 ADD DUP1 PUSH1 0x40 MSTORE POP DUP2 ADD SWAP1 PUSH2 0x9F1 SWAP2 SWAP1 PUSH2 0x1C48 JUMP JUMPDEST PUSH1 0x2 SLOAD PUSH1 0x5 SLOAD PUSH2 0xA01 SWAP2 SWAP1 PUSH2 0x1A74 JUMP JUMPDEST GT ISZERO PUSH2 0xA42 JUMPI PUSH1 0x40 MLOAD PUSH32 0x8C379A000000000000000000000000000000000000000000000000000000000 DUP2 MSTORE PUSH1 0x4 ADD PUSH2 0xA39 SWAP1 PUSH2 0x1CC1 JUMP JUMPDEST PUSH1 0x40 MLOAD DUP1 SWAP2 SUB SWAP1 REVERT JUMPDEST DUP2 PUSH1 0x2 DUP2 SWAP1 SSTORE POP PUSH1 0x2 SLOAD TIMESTAMP PUSH2 0xA57 SWAP2 SWAP1 PUSH2 0x1B16 JUMP JUMPDEST PUSH1 0x3 DUP2 SWAP1 SSTORE POP TIMESTAMP PUSH1 0x4 DUP2 SWAP1 SSTORE POP POP POP POP JUMP JUMPDEST PUSH2 0xA71 PUSH2 0x175D JUMP JUMPDEST CALLER PUSH2 0xA7A PUSH2 0x168F JUMP JUMPDEST PUSH1 0x6 DUP2 SWAP1 SSTORE POP PUSH2 0xA88 PUSH2 0xE4E JUMP JUMPDEST PUSH1 0x4 DUP2 SWAP1 SSTORE POP PUSH1 0x0 PUSH20 0xFFFFFFFFFFFFFFFFFFFFFFFFFFFFFFFFFFFFFFFF AND DUP2 PUSH20 0xFFFFFFFFFFFFFFFFFFFFFFFFFFFFFFFFFFFFFFFF AND EQ PUSH2 0xB55 JUMPI PUSH2 0xACB DUP2 PUSH2 0x605 JUMP JUMPDEST PUSH1 0xB PUSH1 0x0 DUP4 PUSH20 0xFFFFFFFFFFFFFFFFFFFFFFFFFFFFFFFFFFFFFFFF AND PUSH20 0xFFFFFFFFFFFFFFFFFFFFFFFFFFFFFFFFFFFFFFFF AND DUP2 MSTORE PUSH1 0x20 ADD SWAP1 DUP2 MSTORE PUSH1 0x20 ADD PUSH1 0x0 KECCAK256 DUP2 SWAP1 SSTORE POP PUSH1 0x6 SLOAD PUSH1 0xA PUSH1 0x0 DUP4 PUSH20 0xFFFFFFFFFFFFFFFFFFFFFFFFFFFFFFFFFFFFFFFF AND PUSH20 0xFFFFFFFFFFFFFFFFFFFFFFFFFFFFFFFFFFFFFFFF AND DUP2 MSTORE PUSH1 0x20 ADD SWAP1 DUP2 MSTORE PUSH1 0x20 ADD PUSH1 0x0 KECCAK256 DUP2 SWAP1 SSTORE POP JUMPDEST PUSH1 0x0 DUP3 GT PUSH2 0xB98 JUMPI PUSH1 0x40 MLOAD PUSH32 0x8C379A000000000000000000000000000000000000000000000000000000000 DUP2 MSTORE PUSH1 0x4 ADD PUSH2 0xB8F SWAP1 PUSH2 0x1D2D JUMP JUMPDEST PUSH1 0x40 MLOAD DUP1 SWAP2 SUB SWAP1 REVERT JUMPDEST DUP2 PUSH1 0xC PUSH1 0x0 CALLER PUSH20 0xFFFFFFFFFFFFFFFFFFFFFFFFFFFFFFFFFFFFFFFF AND PUSH20 0xFFFFFFFFFFFFFFFFFFFFFFFFFFFFFFFFFFFFFFFF AND DUP2 MSTORE PUSH1 0x20 ADD SWAP1 DUP2 MSTORE PUSH1 0x20 ADD PUSH1 0x0 KECCAK256 PUSH1 0x0 DUP3 DUP3 SLOAD PUSH2 0xBE7 SWAP2 SWAP1 PUSH2 0x1A40 JUMP JUMPDEST SWAP3 POP POP DUP2 SWAP1 SSTORE POP DUP2 PUSH1 0x7 PUSH1 0x0 DUP3 DUP3 SLOAD PUSH2 0xC00 SWAP2 SWAP1 PUSH2 0x1A40 JUMP JUMPDEST SWAP3 POP POP DUP2 SWAP1 SSTORE POP PUSH32 0x0 PUSH20 0xFFFFFFFFFFFFFFFFFFFFFFFFFFFFFFFFFFFFFFFF AND PUSH4 0xA9059CBB CALLER DUP5 PUSH1 0x40 MLOAD DUP4 PUSH4 0xFFFFFFFF AND PUSH1 0xE0 SHL DUP2 MSTORE PUSH1 0x4 ADD PUSH2 0xC62 SWAP3 SWAP2 SWAP1 PUSH2 0x1D4D JUMP JUMPDEST PUSH1 0x20 PUSH1 0x40 MLOAD DUP1 DUP4 SUB DUP2 PUSH1 0x0 DUP8 GAS CALL ISZERO DUP1 ISZERO PUSH2 0xC81 JUMPI RETURNDATASIZE PUSH1 0x0 DUP1 RETURNDATACOPY RETURNDATASIZE PUSH1 0x0 REVERT JUMPDEST POP POP POP POP PUSH1 0x40 MLOAD RETURNDATASIZE PUSH1 0x1F NOT PUSH1 0x1F DUP3 ADD AND DUP3 ADD DUP1 PUSH1 0x40 MSTORE POP DUP2 ADD SWAP1 PUSH2 0xCA5 SWAP2 SWAP1 PUSH2 0x1DAE JUMP JUMPDEST POP POP PUSH2 0xCAF PUSH2 0x17AC JUMP JUMPDEST POP JUMP JUMPDEST PUSH1 0x9 SLOAD DUP2 JUMP JUMPDEST PUSH1 0x0 PUSH1 0x3 SLOAD SWAP1 POP SWAP1 JUMP JUMPDEST PUSH1 0x1 PUSH1 0x0 SWAP1 SLOAD SWAP1 PUSH2 0x100 EXP SWAP1 DIV PUSH20 0xFFFFFFFFFFFFFFFFFFFFFFFFFFFFFFFFFFFFFFFF AND PUSH20 0xFFFFFFFFFFFFFFFFFFFFFFFFFFFFFFFFFFFFFFFF AND CALLER PUSH20 0xFFFFFFFFFFFFFFFFFFFFFFFFFFFFFFFFFFFFFFFF AND EQ PUSH2 0xD52 JUMPI PUSH1 0x40 MLOAD PUSH32 0x8C379A000000000000000000000000000000000000000000000000000000000 DUP2 MSTORE PUSH1 0x4 ADD PUSH2 0xD49 SWAP1 PUSH2 0x1BA7 JUMP JUMPDEST PUSH1 0x40 MLOAD DUP1 SWAP2 SUB SWAP1 REVERT JUMPDEST DUP1 PUSH1 0x9 DUP2 SWAP1 SSTORE POP POP JUMP JUMPDEST PUSH1 0x3 SLOAD DUP2 JUMP JUMPDEST PUSH1 0xC PUSH1 0x20 MSTORE DUP1 PUSH1 0x0 MSTORE PUSH1 0x40 PUSH1 0x0 KECCAK256 PUSH1 0x0 SWAP2 POP SWAP1 POP SLOAD DUP2 JUMP JUMPDEST PUSH32 0x0 DUP2 JUMP JUMPDEST PUSH1 0x4 SLOAD DUP2 JUMP JUMPDEST PUSH1 0x1 PUSH1 0x0 SWAP1 SLOAD SWAP1 PUSH2 0x100 EXP SWAP1 DIV PUSH20 0xFFFFFFFFFFFFFFFFFFFFFFFFFFFFFFFFFFFFFFFF AND PUSH20 0xFFFFFFFFFFFFFFFFFFFFFFFFFFFFFFFFFFFFFFFF AND CALLER PUSH20 0xFFFFFFFFFFFFFFFFFFFFFFFFFFFFFFFFFFFFFFFF AND EQ PUSH2 0xE34 JUMPI PUSH1 0x40 MLOAD PUSH32 0x8C379A000000000000000000000000000000000000000000000000000000000 DUP2 MSTORE PUSH1 0x4 ADD PUSH2 0xE2B SWAP1 PUSH2 0x1BA7 JUMP JUMPDEST PUSH1 0x40 MLOAD DUP1 SWAP2 SUB SWAP1 REVERT JUMPDEST DUP1 PUSH1 0x8 DUP2 SWAP1 SSTORE POP POP JUMP JUMPDEST PUSH1 0x5 SLOAD DUP2 JUMP JUMPDEST PUSH1 0x0 PUSH1 0x5 SLOAD SWAP1 POP SWAP1 JUMP JUMPDEST PUSH1 0x0 PUSH2 0xE5C PUSH1 0x3 SLOAD TIMESTAMP PUSH2 0x17B6 JUMP JUMPDEST SWAP1 POP SWAP1 JUMP JUMPDEST PUSH1 0x8 SLOAD DUP2 JUMP JUMPDEST PUSH1 0x1 PUSH1 0x0 SWAP1 SLOAD SWAP1 PUSH2 0x100 EXP SWAP1 DIV PUSH20 0xFFFFFFFFFFFFFFFFFFFFFFFFFFFFFFFFFFFFFFFF AND PUSH20 0xFFFFFFFFFFFFFFFFFFFFFFFFFFFFFFFFFFFFFFFF AND CALLER PUSH20 0xFFFFFFFFFFFFFFFFFFFFFFFFFFFFFFFFFFFFFFFF AND EQ PUSH2 0xEF7 JUMPI PUSH1 0x40 MLOAD PUSH32 0x8C379A000000000000000000000000000000000000000000000000000000000 DUP2 MSTORE PUSH1 0x4 ADD PUSH2 0xEEE SWAP1 PUSH2 0x1BA7 JUMP JUMPDEST PUSH1 0x40 MLOAD DUP1 SWAP2 SUB SWAP1 REVERT JUMPDEST PUSH32 0x0 PUSH20 0xFFFFFFFFFFFFFFFFFFFFFFFFFFFFFFFFFFFFFFFF AND DUP3 PUSH20 0xFFFFFFFFFFFFFFFFFFFFFFFFFFFFFFFFFFFFFFFF AND SUB PUSH2 0xF85 JUMPI PUSH1 0x40 MLOAD PUSH32 0x8C379A000000000000000000000000000000000000000000000000000000000 DUP2 MSTORE PUSH1 0x4 ADD PUSH2 0xF7C SWAP1 PUSH2 0x1E4D JUMP JUMPDEST PUSH1 0x40 MLOAD DUP1 SWAP2 SUB SWAP1 REVERT JUMPDEST DUP2 PUSH20 0xFFFFFFFFFFFFFFFFFFFFFFFFFFFFFFFFFFFFFFFF AND PUSH4 0xA9059CBB PUSH1 0x1 PUSH1 0x0 SWAP1 SLOAD SWAP1 PUSH2 0x100 EXP SWAP1 DIV PUSH20 0xFFFFFFFFFFFFFFFFFFFFFFFFFFFFFFFFFFFFFFFF AND DUP4 PUSH1 0x40 MLOAD DUP4 PUSH4 0xFFFFFFFF AND PUSH1 0xE0 SHL DUP2 MSTORE PUSH1 0x4 ADD PUSH2 0xFE2 SWAP3 SWAP2 SWAP1 PUSH2 0x1D4D JUMP JUMPDEST PUSH1 0x20 PUSH1 0x40 MLOAD DUP1 DUP4 SUB DUP2 PUSH1 0x0 DUP8 GAS CALL ISZERO DUP1 ISZERO PUSH2 0x1001 JUMPI RETURNDATASIZE PUSH1 0x0 DUP1 RETURNDATACOPY RETURNDATASIZE PUSH1 0x0 REVERT JUMPDEST POP POP POP POP PUSH1 0x40 MLOAD RETURNDATASIZE PUSH1 0x1F NOT PUSH1 0x1F DUP3 ADD AND DUP3 ADD DUP1 PUSH1 0x40 MSTORE POP DUP2 ADD SWAP1 PUSH2 0x1025 SWAP2 SWAP1 PUSH2 0x1DAE JUMP JUMPDEST POP POP POP JUMP JUMPDEST PUSH1 0xA PUSH1 0x20 MSTORE DUP1 PUSH1 0x0 MSTORE PUSH1 0x40 PUSH1 0x0 KECCAK256 PUSH1 0x0 SWAP2 POP SWAP1 POP SLOAD DUP2 JUMP JUMPDEST PUSH1 0x1 PUSH1 0x0 SWAP1 SLOAD SWAP1 PUSH2 0x100 EXP SWAP1 DIV PUSH20 0xFFFFFFFFFFFFFFFFFFFFFFFFFFFFFFFFFFFFFFFF AND DUP2 JUMP JUMPDEST PUSH2 0x1070 PUSH2 0x175D JUMP JUMPDEST CALLER PUSH2 0x1079 PUSH2 0x168F JUMP JUMPDEST PUSH1 0x6 DUP2 SWAP1 SSTORE POP PUSH2 0x1087 PUSH2 0xE4E JUMP JUMPDEST PUSH1 0x4 DUP2 SWAP1 SSTORE POP PUSH1 0x0 PUSH20 0xFFFFFFFFFFFFFFFFFFFFFFFFFFFFFFFFFFFFFFFF AND DUP2 PUSH20 0xFFFFFFFFFFFFFFFFFFFFFFFFFFFFFFFFFFFFFFFF AND EQ PUSH2 0x1154 JUMPI PUSH2 0x10CA DUP2 PUSH2 0x605 JUMP JUMPDEST PUSH1 0xB PUSH1 0x0 DUP4 PUSH20 0xFFFFFFFFFFFFFFFFFFFFFFFFFFFFFFFFFFFFFFFF AND PUSH20 0xFFFFFFFFFFFFFFFFFFFFFFFFFFFFFFFFFFFFFFFF AND DUP2 MSTORE PUSH1 0x20 ADD SWAP1 DUP2 MSTORE PUSH1 0x20 ADD PUSH1 0x0 KECCAK256 DUP2 SWAP1 SSTORE POP PUSH1 0x6 SLOAD PUSH1 0xA PUSH1 0x0 DUP4 PUSH20 0xFFFFFFFFFFFFFFFFFFFFFFFFFFFFFFFFFFFFFFFF AND PUSH20 0xFFFFFFFFFFFFFFFFFFFFFFFFFFFFFFFFFFFFFFFF AND DUP2 MSTORE PUSH1 0x20 ADD SWAP1 DUP2 MSTORE PUSH1 0x20 ADD PUSH1 0x0 KECCAK256 DUP2 SWAP1 SSTORE POP JUMPDEST PUSH1 0x0 DUP3 GT PUSH2 0x1197 JUMPI PUSH1 0x40 MLOAD PUSH32 0x8C379A000000000000000000000000000000000000000000000000000000000 DUP2 MSTORE PUSH1 0x4 ADD PUSH2 0x118E SWAP1 PUSH2 0x1D2D JUMP JUMPDEST PUSH1 0x40 MLOAD DUP1 SWAP2 SUB SWAP1 REVERT JUMPDEST PUSH1 0x8 SLOAD DUP3 PUSH1 0xC PUSH1 0x0 CALLER PUSH20 0xFFFFFFFFFFFFFFFFFFFFFFFFFFFFFFFFFFFFFFFF AND PUSH20 0xFFFFFFFFFFFFFFFFFFFFFFFFFFFFFFFFFFFFFFFF AND DUP2 MSTORE PUSH1 0x20 ADD SWAP1 DUP2 MSTORE PUSH1 0x20 ADD PUSH1 0x0 KECCAK256 SLOAD PUSH2 0x11E5 SWAP2 SWAP1 PUSH2 0x1B16 JUMP JUMPDEST GT ISZERO PUSH2 0x1226 JUMPI PUSH1 0x40 MLOAD PUSH32 0x8C379A000000000000000000000000000000000000000000000000000000000 DUP2 MSTORE PUSH1 0x4 ADD PUSH2 0x121D SWAP1 PUSH2 0x1EB9 JUMP JUMPDEST PUSH1 0x40 MLOAD DUP1 SWAP2 SUB SWAP1 REVERT JUMPDEST PUSH1 0x9 SLOAD DUP3 PUSH1 0x7 SLOAD PUSH2 0x1237 SWAP2 SWAP1 PUSH2 0x1B16 JUMP JUMPDEST GT ISZERO PUSH2 0x1278 JUMPI PUSH1 0x40 MLOAD PUSH32 0x8C379A000000000000000000000000000000000000000000000000000000000 DUP2 MSTORE PUSH1 0x4 ADD PUSH2 0x126F SWAP1 PUSH2 0x1F4B JUMP JUMPDEST PUSH1 0x40 MLOAD DUP1 SWAP2 SUB SWAP1 REVERT JUMPDEST PUSH32 0x0 PUSH20 0xFFFFFFFFFFFFFFFFFFFFFFFFFFFFFFFFFFFFFFFF AND PUSH4 0x23B872DD CALLER ADDRESS DUP6 PUSH1 0x40 MLOAD DUP5 PUSH4 0xFFFFFFFF AND PUSH1 0xE0 SHL DUP2 MSTORE PUSH1 0x4 ADD PUSH2 0x12D5 SWAP4 SWAP3 SWAP2 SWAP1 PUSH2 0x1F6B JUMP JUMPDEST PUSH1 0x20 PUSH1 0x40 MLOAD DUP1 DUP4 SUB DUP2 PUSH1 0x0 DUP8 GAS CALL ISZERO DUP1 ISZERO PUSH2 0x12F4 JUMPI RETURNDATASIZE PUSH1 0x0 DUP1 RETURNDATACOPY RETURNDATASIZE PUSH1 0x0 REVERT JUMPDEST POP POP POP POP PUSH1 0x40 MLOAD RETURNDATASIZE PUSH1 0x1F NOT PUSH1 0x1F DUP3 ADD AND DUP3 ADD DUP1 PUSH1 0x40 MSTORE POP DUP2 ADD SWAP1 PUSH2 0x1318 SWAP2 SWAP1 PUSH2 0x1DAE JUMP JUMPDEST POP DUP2 PUSH1 0xC PUSH1 0x0 CALLER PUSH20 0xFFFFFFFFFFFFFFFFFFFFFFFFFFFFFFFFFFFFFFFF AND PUSH20 0xFFFFFFFFFFFFFFFFFFFFFFFFFFFFFFFFFFFFFFFF AND DUP2 MSTORE PUSH1 0x20 ADD SWAP1 DUP2 MSTORE PUSH1 0x20 ADD PUSH1 0x0 KECCAK256 PUSH1 0x0 DUP3 DUP3 SLOAD PUSH2 0x1368 SWAP2 SWAP1 PUSH2 0x1B16 JUMP JUMPDEST SWAP3 POP POP DUP2 SWAP1 SSTORE POP DUP2 PUSH1 0x7 PUSH1 0x0 DUP3 DUP3 SLOAD PUSH2 0x1381 SWAP2 SWAP1 PUSH2 0x1B16 JUMP JUMPDEST SWAP3 POP POP DUP2 SWAP1 SSTORE POP POP PUSH2 0x1391 PUSH2 0x17AC JUMP JUMPDEST POP JUMP JUMPDEST PUSH1 0x0 PUSH1 0x2 SLOAD SWAP1 POP SWAP1 JUMP JUMPDEST PUSH1 0x0 PUSH1 0x8 SLOAD SWAP1 POP SWAP1 JUMP JUMPDEST PUSH1 0x0 PUSH1 0x7 SLOAD SWAP1 POP SWAP1 JUMP JUMPDEST PUSH2 0x13BA PUSH2 0x175D JUMP JUMPDEST CALLER PUSH2 0x13C3 PUSH2 0x168F JUMP JUMPDEST PUSH1 0x6 DUP2 SWAP1 SSTORE POP PUSH2 0x13D1 PUSH2 0xE4E JUMP JUMPDEST PUSH1 0x4 DUP2 SWAP1 SSTORE POP PUSH1 0x0 PUSH20 0xFFFFFFFFFFFFFFFFFFFFFFFFFFFFFFFFFFFFFFFF AND DUP2 PUSH20 0xFFFFFFFFFFFFFFFFFFFFFFFFFFFFFFFFFFFFFFFF AND EQ PUSH2 0x149E JUMPI PUSH2 0x1414 DUP2 PUSH2 0x605 JUMP JUMPDEST PUSH1 0xB PUSH1 0x0 DUP4 PUSH20 0xFFFFFFFFFFFFFFFFFFFFFFFFFFFFFFFFFFFFFFFF AND PUSH20 0xFFFFFFFFFFFFFFFFFFFFFFFFFFFFFFFFFFFFFFFF AND DUP2 MSTORE PUSH1 0x20 ADD SWAP1 DUP2 MSTORE PUSH1 0x20 ADD PUSH1 0x0 KECCAK256 DUP2 SWAP1 SSTORE POP PUSH1 0x6 SLOAD PUSH1 0xA PUSH1 0x0 DUP4 PUSH20 0xFFFFFFFFFFFFFFFFFFFFFFFFFFFFFFFFFFFFFFFF AND PUSH20 0xFFFFFFFFFFFFFFFFFFFFFFFFFFFFFFFFFFFFFFFF AND DUP2 MSTORE PUSH1 0x20 ADD SWAP1 DUP2 MSTORE PUSH1 0x20 ADD PUSH1 0x0 KECCAK256 DUP2 SWAP1 SSTORE POP JUMPDEST PUSH1 0x0 PUSH1 0xB PUSH1 0x0 CALLER PUSH20 0xFFFFFFFFFFFFFFFFFFFFFFFFFFFFFFFFFFFFFFFF AND PUSH20 0xFFFFFFFFFFFFFFFFFFFFFFFFFFFFFFFFFFFFFFFF AND DUP2 MSTORE PUSH1 0x20 ADD SWAP1 DUP2 MSTORE PUSH1 0x20 ADD PUSH1 0x0 KECCAK256 SLOAD SWAP1 POP PUSH1 0x0 DUP2 GT ISZERO PUSH2 0x15D0 JUMPI PUSH1 0x0 PUSH1 0xB PUSH1 0x0 CALLER PUSH20 0xFFFFFFFFFFFFFFFFFFFFFFFFFFFFFFFFFFFFFFFF AND PUSH20 0xFFFFFFFFFFFFFFFFFFFFFFFFFFFFFFFFFFFFFFFF AND DUP2 MSTORE PUSH1 0x20 ADD SWAP1 DUP2 MSTORE PUSH1 0x20 ADD PUSH1 0x0 KECCAK256 DUP2 SWAP1 SSTORE POP PUSH32 0x0 PUSH20 0xFFFFFFFFFFFFFFFFFFFFFFFFFFFFFFFFFFFFFFFF AND PUSH4 0xA9059CBB CALLER DUP4 PUSH1 0x40 MLOAD DUP4 PUSH4 0xFFFFFFFF AND PUSH1 0xE0 SHL DUP2 MSTORE PUSH1 0x4 ADD PUSH2 0x158B SWAP3 SWAP2 SWAP1 PUSH2 0x1D4D JUMP JUMPDEST PUSH1 0x20 PUSH1 0x40 MLOAD DUP1 DUP4 SUB DUP2 PUSH1 0x0 DUP8 GAS CALL ISZERO DUP1 ISZERO PUSH2 0x15AA JUMPI RETURNDATASIZE PUSH1 0x0 DUP1 RETURNDATACOPY RETURNDATASIZE PUSH1 0x0 REVERT JUMPDEST POP POP POP POP PUSH1 0x40 MLOAD RETURNDATASIZE PUSH1 0x1F NOT PUSH1 0x1F DUP3 ADD AND DUP3 ADD DUP1 PUSH1 0x40 MSTORE POP DUP2 ADD SWAP1 PUSH2 0x15CE SWAP2 SWAP1 PUSH2 0x1DAE JUMP JUMPDEST POP JUMPDEST POP POP PUSH2 0x15DA PUSH2 0x17AC JUMP JUMPDEST JUMP JUMPDEST PUSH1 0x0 DUP1 PUSH32 0x0 PUSH20 0xFFFFFFFFFFFFFFFFFFFFFFFFFFFFFFFFFFFFFFFF AND PUSH4 0x70A08231 ADDRESS PUSH1 0x40 MLOAD DUP3 PUSH4 0xFFFFFFFF AND PUSH1 0xE0 SHL DUP2 MSTORE PUSH1 0x4 ADD PUSH2 0x1638 SWAP2 SWAP1 PUSH2 0x19F6 JUMP JUMPDEST PUSH1 0x20 PUSH1 0x40 MLOAD DUP1 DUP4 SUB DUP2 DUP7 GAS STATICCALL ISZERO DUP1 ISZERO PUSH2 0x1655 JUMPI RETURNDATASIZE PUSH1 0x0 DUP1 RETURNDATACOPY RETURNDATASIZE PUSH1 0x0 REVERT JUMPDEST POP POP POP POP PUSH1 0x40 MLOAD RETURNDATASIZE PUSH1 0x1F NOT PUSH1 0x1F DUP3 ADD AND DUP3 ADD DUP1 PUSH1 0x40 MSTORE POP DUP2 ADD SWAP1 PUSH2 0x1679 SWAP2 SWAP1 PUSH2 0x1C48 JUMP JUMPDEST SWAP1 POP PUSH1 0x7 SLOAD DUP2 PUSH2 0x1689 SWAP2 SWAP1 PUSH2 0x1A40 JUMP JUMPDEST SWAP2 POP POP SWAP1 JUMP JUMPDEST PUSH1 0x0 DUP1 PUSH1 0x7 SLOAD SUB PUSH2 0x16A4 JUMPI PUSH1 0x6 SLOAD SWAP1 POP PUSH2 0x16F6 JUMP JUMPDEST PUSH1 0x7 SLOAD PUSH8 0xDE0B6B3A7640000 PUSH1 0x4 SLOAD PUSH2 0x16BB PUSH2 0xE4E JUMP JUMPDEST PUSH2 0x16C5 SWAP2 SWAP1 PUSH2 0x1A40 JUMP JUMPDEST PUSH1 0x5 SLOAD PUSH2 0x16D2 SWAP2 SWAP1 PUSH2 0x1A74 JUMP JUMPDEST PUSH2 0x16DC SWAP2 SWAP1 PUSH2 0x1A74 JUMP JUMPDEST PUSH2 0x16E6 SWAP2 SWAP1 PUSH2 0x1AE5 JUMP JUMPDEST PUSH1 0x6 SLOAD PUSH2 0x16F3 SWAP2 SWAP1 PUSH2 0x1B16 JUMP JUMPDEST SWAP1 POP JUMPDEST SWAP1 JUMP JUMPDEST PUSH32 0x0 DUP2 JUMP JUMPDEST PUSH1 0x6 SLOAD DUP2 JUMP JUMPDEST PUSH1 0x0 PUSH1 0x4 SLOAD SWAP1 POP SWAP1 JUMP JUMPDEST PUSH1 0x0 PUSH1 0x9 SLOAD SWAP1 POP SWAP1 JUMP JUMPDEST PUSH1 0x0 TIMESTAMP PUSH1 0x3 SLOAD LT PUSH2 0x1755 JUMPI TIMESTAMP PUSH1 0x3 SLOAD PUSH2 0x1750 SWAP2 SWAP1 PUSH2 0x1A40 JUMP JUMPDEST PUSH2 0x1758 JUMP JUMPDEST PUSH1 0x0 JUMPDEST SWAP1 POP SWAP1 JUMP JUMPDEST PUSH1 0x2 PUSH1 0x0 SLOAD SUB PUSH2 0x17A2 JUMPI PUSH1 0x40 MLOAD PUSH32 0x8C379A000000000000000000000000000000000000000000000000000000000 DUP2 MSTORE PUSH1 0x4 ADD PUSH2 0x1799 SWAP1 PUSH2 0x1FEE JUMP JUMPDEST PUSH1 0x40 MLOAD DUP1 SWAP2 SUB SWAP1 REVERT JUMPDEST PUSH1 0x2 PUSH1 0x0 DUP2 SWAP1 SSTORE POP JUMP JUMPDEST PUSH1 0x1 PUSH1 0x0 DUP2 SWAP1 SSTORE POP JUMP JUMPDEST PUSH1 0x0 DUP2 DUP4 GT ISZERO PUSH2 0x17C6 JUMPI DUP2 PUSH2 0x17C8 JUMP JUMPDEST DUP3 JUMPDEST SWAP1 POP SWAP3 SWAP2 POP POP JUMP JUMPDEST PUSH1 0x0 DUP1 REVERT JUMPDEST PUSH1 0x0 PUSH20 0xFFFFFFFFFFFFFFFFFFFFFFFFFFFFFFFFFFFFFFFF DUP3 AND SWAP1 POP SWAP2 SWAP1 POP JUMP JUMPDEST PUSH1 0x0 PUSH2 0x1800 DUP3 PUSH2 0x17D5 JUMP JUMPDEST SWAP1 POP SWAP2 SWAP1 POP JUMP JUMPDEST PUSH2 0x1810 DUP2 PUSH2 0x17F5 JUMP JUMPDEST DUP2 EQ PUSH2 0x181B JUMPI PUSH1 0x0 DUP1 REVERT JUMPDEST POP JUMP JUMPDEST PUSH1 0x0 DUP2 CALLDATALOAD SWAP1 POP PUSH2 0x182D DUP2 PUSH2 0x1807 JUMP JUMPDEST SWAP3 SWAP2 POP POP JUMP JUMPDEST PUSH1 0x0 PUSH1 0x20 DUP3 DUP5 SUB SLT ISZERO PUSH2 0x1849 JUMPI PUSH2 0x1848 PUSH2 0x17D0 JUMP JUMPDEST JUMPDEST PUSH1 0x0 PUSH2 0x1857 DUP5 DUP3 DUP6 ADD PUSH2 0x181E JUMP JUMPDEST SWAP2 POP POP SWAP3 SWAP2 POP POP JUMP JUMPDEST PUSH1 0x0 DUP2 SWAP1 POP SWAP2 SWAP1 POP JUMP JUMPDEST PUSH2 0x1873 DUP2 PUSH2 0x1860 JUMP JUMPDEST DUP3 MSTORE POP POP JUMP JUMPDEST PUSH1 0x0 PUSH1 0x20 DUP3 ADD SWAP1 POP PUSH2 0x188E PUSH1 0x0 DUP4 ADD DUP5 PUSH2 0x186A JUMP JUMPDEST SWAP3 SWAP2 POP POP JUMP JUMPDEST PUSH2 0x189D DUP2 PUSH2 0x1860 JUMP JUMPDEST DUP2 EQ PUSH2 0x18A8 JUMPI PUSH1 0x0 DUP1 REVERT JUMPDEST POP JUMP JUMPDEST PUSH1 0x0 DUP2 CALLDATALOAD SWAP1 POP PUSH2 0x18BA DUP2 PUSH2 0x1894 JUMP JUMPDEST SWAP3 SWAP2 POP POP JUMP JUMPDEST PUSH1 0x0 DUP1 PUSH1 0x40 DUP4 DUP6 SUB SLT ISZERO PUSH2 0x18D7 JUMPI PUSH2 0x18D6 PUSH2 0x17D0 JUMP JUMPDEST JUMPDEST PUSH1 0x0 PUSH2 0x18E5 DUP6 DUP3 DUP7 ADD PUSH2 0x18AB JUMP JUMPDEST SWAP3 POP POP PUSH1 0x20 PUSH2 0x18F6 DUP6 DUP3 DUP7 ADD PUSH2 0x18AB JUMP JUMPDEST SWAP2 POP POP SWAP3 POP SWAP3 SWAP1 POP JUMP JUMPDEST PUSH1 0x0 PUSH1 0x20 DUP3 DUP5 SUB SLT ISZERO PUSH2 0x1916 JUMPI PUSH2 0x1915 PUSH2 0x17D0 JUMP JUMPDEST JUMPDEST PUSH1 0x0 PUSH2 0x1924 DUP5 DUP3 DUP6 ADD PUSH2 0x18AB JUMP JUMPDEST SWAP2 POP POP SWAP3 SWAP2 POP POP JUMP JUMPDEST PUSH1 0x0 DUP2 SWAP1 POP SWAP2 SWAP1 POP JUMP JUMPDEST PUSH1 0x0 PUSH2 0x1952 PUSH2 0x194D PUSH2 0x1948 DUP5 PUSH2 0x17D5 JUMP JUMPDEST PUSH2 0x192D JUMP JUMPDEST PUSH2 0x17D5 JUMP JUMPDEST SWAP1 POP SWAP2 SWAP1 POP JUMP JUMPDEST PUSH1 0x0 PUSH2 0x1964 DUP3 PUSH2 0x1937 JUMP JUMPDEST SWAP1 POP SWAP2 SWAP1 POP JUMP JUMPDEST PUSH1 0x0 PUSH2 0x1976 DUP3 PUSH2 0x1959 JUMP JUMPDEST SWAP1 POP SWAP2 SWAP1 POP JUMP JUMPDEST PUSH2 0x1986 DUP2 PUSH2 0x196B JUMP JUMPDEST DUP3 MSTORE POP POP JUMP JUMPDEST PUSH1 0x0 PUSH1 0x20 DUP3 ADD SWAP1 POP PUSH2 0x19A1 PUSH1 0x0 DUP4 ADD DUP5 PUSH2 0x197D JUMP JUMPDEST SWAP3 SWAP2 POP POP JUMP JUMPDEST PUSH1 0x0 DUP1 PUSH1 0x40 DUP4 DUP6 SUB SLT ISZERO PUSH2 0x19BE JUMPI PUSH2 0x19BD PUSH2 0x17D0 JUMP JUMPDEST JUMPDEST PUSH1 0x0 PUSH2 0x19CC DUP6 DUP3 DUP7 ADD PUSH2 0x181E JUMP JUMPDEST SWAP3 POP POP PUSH1 0x20 PUSH2 0x19DD DUP6 DUP3 DUP7 ADD PUSH2 0x18AB JUMP JUMPDEST SWAP2 POP POP SWAP3 POP SWAP3 SWAP1 POP JUMP JUMPDEST PUSH2 0x19F0 DUP2 PUSH2 0x17F5 JUMP JUMPDEST DUP3 MSTORE POP POP JUMP JUMPDEST PUSH1 0x0 PUSH1 0x20 DUP3 ADD SWAP1 POP PUSH2 0x1A0B PUSH1 0x0 DUP4 ADD DUP5 PUSH2 0x19E7 JUMP JUMPDEST SWAP3 SWAP2 POP POP JUMP JUMPDEST PUSH32 0x4E487B7100000000000000000000000000000000000000000000000000000000 PUSH1 0x0 MSTORE PUSH1 0x11 PUSH1 0x4 MSTORE PUSH1 0x24 PUSH1 0x0 REVERT JUMPDEST PUSH1 0x0 PUSH2 0x1A4B DUP3 PUSH2 0x1860 JUMP JUMPDEST SWAP2 POP PUSH2 0x1A56 DUP4 PUSH2 0x1860 JUMP JUMPDEST SWAP3 POP DUP3 DUP3 SUB SWAP1 POP DUP2 DUP2 GT ISZERO PUSH2 0x1A6E JUMPI PUSH2 0x1A6D PUSH2 0x1A11 JUMP JUMPDEST JUMPDEST SWAP3 SWAP2 POP POP JUMP JUMPDEST PUSH1 0x0 PUSH2 0x1A7F DUP3 PUSH2 0x1860 JUMP JUMPDEST SWAP2 POP PUSH2 0x1A8A DUP4 PUSH2 0x1860 JUMP JUMPDEST SWAP3 POP DUP3 DUP3 MUL PUSH2 0x1A98 DUP2 PUSH2 0x1860 JUMP JUMPDEST SWAP2 POP DUP3 DUP3 DIV DUP5 EQ DUP4 ISZERO OR PUSH2 0x1AAF JUMPI PUSH2 0x1AAE PUSH2 0x1A11 JUMP JUMPDEST JUMPDEST POP SWAP3 SWAP2 POP POP JUMP JUMPDEST PUSH32 0x4E487B7100000000000000000000000000000000000000000000000000000000 PUSH1 0x0 MSTORE PUSH1 0x12 PUSH1 0x4 MSTORE PUSH1 0x24 PUSH1 0x0 REVERT JUMPDEST PUSH1 0x0 PUSH2 0x1AF0 DUP3 PUSH2 0x1860 JUMP JUMPDEST SWAP2 POP PUSH2 0x1AFB DUP4 PUSH2 0x1860 JUMP JUMPDEST SWAP3 POP DUP3 PUSH2 0x1B0B JUMPI PUSH2 0x1B0A PUSH2 0x1AB6 JUMP JUMPDEST JUMPDEST DUP3 DUP3 DIV SWAP1 POP SWAP3 SWAP2 POP POP JUMP JUMPDEST PUSH1 0x0 PUSH2 0x1B21 DUP3 PUSH2 0x1860 JUMP JUMPDEST SWAP2 POP PUSH2 0x1B2C DUP4 PUSH2 0x1860 JUMP JUMPDEST SWAP3 POP DUP3 DUP3 ADD SWAP1 POP DUP1 DUP3 GT ISZERO PUSH2 0x1B44 JUMPI PUSH2 0x1B43 PUSH2 0x1A11 JUMP JUMPDEST JUMPDEST SWAP3 SWAP2 POP POP JUMP JUMPDEST PUSH1 0x0 DUP3 DUP3 MSTORE PUSH1 0x20 DUP3 ADD SWAP1 POP SWAP3 SWAP2 POP POP JUMP JUMPDEST PUSH32 0x6E6F7420617574686F72697A6564000000000000000000000000000000000000 PUSH1 0x0 DUP3 ADD MSTORE POP JUMP JUMPDEST PUSH1 0x0 PUSH2 0x1B91 PUSH1 0xE DUP4 PUSH2 0x1B4A JUMP JUMPDEST SWAP2 POP PUSH2 0x1B9C DUP3 PUSH2 0x1B5B JUMP JUMPDEST PUSH1 0x20 DUP3 ADD SWAP1 POP SWAP2 SWAP1 POP JUMP JUMPDEST PUSH1 0x0 PUSH1 0x20 DUP3 ADD SWAP1 POP DUP2 DUP2 SUB PUSH1 0x0 DUP4 ADD MSTORE PUSH2 0x1BC0 DUP2 PUSH2 0x1B84 JUMP JUMPDEST SWAP1 POP SWAP2 SWAP1 POP JUMP JUMPDEST PUSH32 0x7265776172642072617465203D20300000000000000000000000000000000000 PUSH1 0x0 DUP3 ADD MSTORE POP JUMP JUMPDEST PUSH1 0x0 PUSH2 0x1BFD PUSH1 0xF DUP4 PUSH2 0x1B4A JUMP JUMPDEST SWAP2 POP PUSH2 0x1C08 DUP3 PUSH2 0x1BC7 JUMP JUMPDEST PUSH1 0x20 DUP3 ADD SWAP1 POP SWAP2 SWAP1 POP JUMP JUMPDEST PUSH1 0x0 PUSH1 0x20 DUP3 ADD SWAP1 POP DUP2 DUP2 SUB PUSH1 0x0 DUP4 ADD MSTORE PUSH2 0x1C2C DUP2 PUSH2 0x1BF0 JUMP JUMPDEST SWAP1 POP SWAP2 SWAP1 POP JUMP JUMPDEST PUSH1 0x0 DUP2 MLOAD SWAP1 POP PUSH2 0x1C42 DUP2 PUSH2 0x1894 JUMP JUMPDEST SWAP3 SWAP2 POP POP JUMP JUMPDEST PUSH1 0x0 PUSH1 0x20 DUP3 DUP5 SUB SLT ISZERO PUSH2 0x1C5E JUMPI PUSH2 0x1C5D PUSH2 0x17D0 JUMP JUMPDEST JUMPDEST PUSH1 0x0 PUSH2 0x1C6C DUP5 DUP3 DUP6 ADD PUSH2 0x1C33 JUMP JUMPDEST SWAP2 POP POP SWAP3 SWAP2 POP POP JUMP JUMPDEST PUSH32 0x72657761726420616D6F756E74203E2062616C616E6365000000000000000000 PUSH1 0x0 DUP3 ADD MSTORE POP JUMP JUMPDEST PUSH1 0x0 PUSH2 0x1CAB PUSH1 0x17 DUP4 PUSH2 0x1B4A JUMP JUMPDEST SWAP2 POP PUSH2 0x1CB6 DUP3 PUSH2 0x1C75 JUMP JUMPDEST PUSH1 0x20 DUP3 ADD SWAP1 POP SWAP2 SWAP1 POP JUMP JUMPDEST PUSH1 0x0 PUSH1 0x20 DUP3 ADD SWAP1 POP DUP2 DUP2 SUB PUSH1 0x0 DUP4 ADD MSTORE PUSH2 0x1CDA DUP2 PUSH2 0x1C9E JUMP JUMPDEST SWAP1 POP SWAP2 SWAP1 POP JUMP JUMPDEST PUSH32 0x616D6F756E74203D203000000000000000000000000000000000000000000000 PUSH1 0x0 DUP3 ADD MSTORE POP JUMP JUMPDEST PUSH1 0x0 PUSH2 0x1D17 PUSH1 0xA DUP4 PUSH2 0x1B4A JUMP JUMPDEST SWAP2 POP PUSH2 0x1D22 DUP3 PUSH2 0x1CE1 JUMP JUMPDEST PUSH1 0x20 DUP3 ADD SWAP1 POP SWAP2 SWAP1 POP JUMP JUMPDEST PUSH1 0x0 PUSH1 0x20 DUP3 ADD SWAP1 POP DUP2 DUP2 SUB PUSH1 0x0 DUP4 ADD MSTORE PUSH2 0x1D46 DUP2 PUSH2 0x1D0A JUMP JUMPDEST SWAP1 POP SWAP2 SWAP1 POP JUMP JUMPDEST PUSH1 0x0 PUSH1 0x40 DUP3 ADD SWAP1 POP PUSH2 0x1D62 PUSH1 0x0 DUP4 ADD DUP6 PUSH2 0x19E7 JUMP JUMPDEST PUSH2 0x1D6F PUSH1 0x20 DUP4 ADD DUP5 PUSH2 0x186A JUMP JUMPDEST SWAP4 SWAP3 POP POP POP JUMP JUMPDEST PUSH1 0x0 DUP2 ISZERO ISZERO SWAP1 POP SWAP2 SWAP1 POP JUMP JUMPDEST PUSH2 0x1D8B DUP2 PUSH2 0x1D76 JUMP JUMPDEST DUP2 EQ PUSH2 0x1D96 JUMPI PUSH1 0x0 DUP1 REVERT JUMPDEST POP JUMP JUMPDEST PUSH1 0x0 DUP2 MLOAD SWAP1 POP PUSH2 0x1DA8 DUP2 PUSH2 0x1D82 JUMP JUMPDEST SWAP3 SWAP2 POP POP JUMP JUMPDEST PUSH1 0x0 PUSH1 0x20 DUP3 DUP5 SUB SLT ISZERO PUSH2 0x1DC4 JUMPI PUSH2 0x1DC3 PUSH2 0x17D0 JUMP JUMPDEST JUMPDEST PUSH1 0x0 PUSH2 0x1DD2 DUP5 DUP3 DUP6 ADD PUSH2 0x1D99 JUMP JUMPDEST SWAP2 POP POP SWAP3 SWAP2 POP POP JUMP JUMPDEST PUSH32 0x43616E6E6F7420776974686472617720746865207374616B696E6720746F6B65 PUSH1 0x0 DUP3 ADD MSTORE PUSH32 0x6E00000000000000000000000000000000000000000000000000000000000000 PUSH1 0x20 DUP3 ADD MSTORE POP JUMP JUMPDEST PUSH1 0x0 PUSH2 0x1E37 PUSH1 0x21 DUP4 PUSH2 0x1B4A JUMP JUMPDEST SWAP2 POP PUSH2 0x1E42 DUP3 PUSH2 0x1DDB JUMP JUMPDEST PUSH1 0x40 DUP3 ADD SWAP1 POP SWAP2 SWAP1 POP JUMP JUMPDEST PUSH1 0x0 PUSH1 0x20 DUP3 ADD SWAP1 POP DUP2 DUP2 SUB PUSH1 0x0 DUP4 ADD MSTORE PUSH2 0x1E66 DUP2 PUSH2 0x1E2A JUMP JUMPDEST SWAP1 POP SWAP2 SWAP1 POP JUMP JUMPDEST PUSH32 0x546F6F206D756368207374616B65642100000000000000000000000000000000 PUSH1 0x0 DUP3 ADD MSTORE POP JUMP JUMPDEST PUSH1 0x0 PUSH2 0x1EA3 PUSH1 0x10 DUP4 PUSH2 0x1B4A JUMP JUMPDEST SWAP2 POP PUSH2 0x1EAE DUP3 PUSH2 0x1E6D JUMP JUMPDEST PUSH1 0x20 DUP3 ADD SWAP1 POP SWAP2 SWAP1 POP JUMP JUMPDEST PUSH1 0x0 PUSH1 0x20 DUP3 ADD SWAP1 POP DUP2 DUP2 SUB PUSH1 0x0 DUP4 ADD MSTORE PUSH2 0x1ED2 DUP2 PUSH2 0x1E96 JUMP JUMPDEST SWAP1 POP SWAP2 SWAP1 POP JUMP JUMPDEST PUSH32 0x4D6178696D756D206E756D626572206F6620746F6B656E73207374616B656420 PUSH1 0x0 DUP3 ADD MSTORE PUSH32 0x686173206265656E207265616368656421000000000000000000000000000000 PUSH1 0x20 DUP3 ADD MSTORE POP JUMP JUMPDEST PUSH1 0x0 PUSH2 0x1F35 PUSH1 0x31 DUP4 PUSH2 0x1B4A JUMP JUMPDEST SWAP2 POP PUSH2 0x1F40 DUP3 PUSH2 0x1ED9 JUMP JUMPDEST PUSH1 0x40 DUP3 ADD SWAP1 POP SWAP2 SWAP1 POP JUMP JUMPDEST PUSH1 0x0 PUSH1 0x20 DUP3 ADD SWAP1 POP DUP2 DUP2 SUB PUSH1 0x0 DUP4 ADD MSTORE PUSH2 0x1F64 DUP2 PUSH2 0x1F28 JUMP JUMPDEST SWAP1 POP SWAP2 SWAP1 POP JUMP JUMPDEST PUSH1 0x0 PUSH1 0x60 DUP3 ADD SWAP1 POP PUSH2 0x1F80 PUSH1 0x0 DUP4 ADD DUP7 PUSH2 0x19E7 JUMP JUMPDEST PUSH2 0x1F8D PUSH1 0x20 DUP4 ADD DUP6 PUSH2 0x19E7 JUMP JUMPDEST PUSH2 0x1F9A PUSH1 0x40 DUP4 ADD DUP5 PUSH2 0x186A JUMP JUMPDEST SWAP5 SWAP4 POP POP POP POP JUMP JUMPDEST PUSH32 0x5265656E7472616E637947756172643A207265656E7472616E742063616C6C00 PUSH1 0x0 DUP3 ADD MSTORE POP JUMP JUMPDEST PUSH1 0x0 PUSH2 0x1FD8 PUSH1 0x1F DUP4 PUSH2 0x1B4A JUMP JUMPDEST SWAP2 POP PUSH2 0x1FE3 DUP3 PUSH2 0x1FA2 JUMP JUMPDEST PUSH1 0x20 DUP3 ADD SWAP1 POP SWAP2 SWAP1 POP JUMP JUMPDEST PUSH1 0x0 PUSH1 0x20 DUP3 ADD SWAP1 POP DUP2 DUP2 SUB PUSH1 0x0 DUP4 ADD MSTORE PUSH2 0x2007 DUP2 PUSH2 0x1FCB JUMP JUMPDEST SWAP1 POP SWAP2 SWAP1 POP JUMP INVALID LOG2 PUSH5 0x6970667358 0x22 SLT KECCAK256 DELEGATECALL 0xE0 PUSH28 0xAEB9A66E7E7A88D74C09B9E04D7F72D958222918EB608BACC50576C4 0xC7 PUSH5 0x736F6C6343 STOP ADDMOD SLT STOP CALLER "},"gasEstimates":{"creation":{"codeDepositCost":"1652000","executionCost":"infinite","totalCost":"infinite"},"external":{"MAX_AMOUNT_STAKE()":"2497","MAX_NUM_OF_TOKENS_IN_POOL()":"2519","balanceOf(address)":"2904","changePoolLimit(uint256)":"24736","changeStakeLimit(uint256)":"24757","duration()":"2520","earned(address)":"infinite","finishAt()":"2497","getDuration()":"2526","getFinishAt()":"2549","getPoolLimit()":"2547","getRewardRate()":"2548","getStakeLimit()":"2548","getTokensDepositedForRewards()":"infinite","getTotalSupply()":"2482","getUpdatedAt()":"2525","lastTimeRewardApplicable()":"2567","notifyRewardAmount(uint256,uint256)":"infinite","owner()":"2559","recoverERC20(address,uint256)":"infinite","rewardPerToken()":"infinite","rewardPerTokenStored()":"2495","rewardRate()":"2518","rewards(address)":"2883","rewardsToken()":"infinite","secondsLeftTillNewRewards()":"infinite","stake(uint256)":"infinite","stakingToken()":"infinite","totalSupply()":"2542","updatedAt()":"2474","userRewardPerTokenPaid(address)":"2926","withdraw(uint256)":"infinite","withdrawReward()":"infinite"},"internal":{"_min(uint256,uint256)":"67"}},"methodIdentifiers":{"MAX_AMOUNT_STAKE()":"82a80890","MAX_NUM_OF_TOKENS_IN_POOL()":"3d07dfec","balanceOf(address)":"70a08231","changePoolLimit(uint256)":"63760f73","changeStakeLimit(uint256)":"77099928","duration()":"0fb5a6b4","earned(address)":"008cc262","finishAt()":"67d3b488","getDuration()":"ad2e8c9b","getFinishAt()":"40224d19","getPoolLimit()":"f7a54c80","getRewardRate()":"7e1a3786","getStakeLimit()":"bcebf00d","getTokensDepositedForRewards()":"cb6aad9c","getTotalSupply()":"c4e41b22","getUpdatedAt()":"e8355853","lastTimeRewardApplicable()":"80faa57d","notifyRewardAmount(uint256,uint256)":"246132f9","owner()":"8da5cb5b","recoverERC20(address,uint256)":"8980f11f","rewardPerToken()":"cd3daf9d","rewardPerTokenStored()":"df136d65","rewardRate()":"7b0a47ee","rewards(address)":"0700037d","rewardsToken()":"d1af0c7d","secondsLeftTillNewRewards()":"faed65ce","stake(uint256)":"a694fc3a","stakingToken()":"72f702f3","totalSupply()":"18160ddd","updatedAt()":"7519ab50","userRewardPerTokenPaid(address)":"8b876347","withdraw(uint256)":"2e1a7d4d","withdrawReward()":"c885bc58"}},"storageLayout":{"storage":[{"astId":10,"contract":"contracts/StakingRewards.sol:StakingRewards","label":"_status","offset":0,"slot":"0","type":"t_uint256"},{"astId":846,"contract":"contracts/StakingRewards.sol:StakingRewards","label":"owner","offset":0,"slot":"1","type":"t_address"},{"astId":848,"contract":"contracts/StakingRewards.sol:StakingRewards","label":"duration","offset":0,"slot":"2","type":"t_uint256"},{"astId":850,"contract":"contracts/StakingRewards.sol:StakingRewards","label":"finishAt","offset":0,"slot":"3","type":"t_uint256"},{"astId":852,"contract":"contracts/StakingRewards.sol:StakingRewards","label":"updatedAt","offset":0,"slot":"4","type":"t_uint256"},{"astId":854,"contract":"contracts/StakingRewards.sol:StakingRewards","label":"rewardRate","offset":0,"slot":"5","type":"t_uint256"},{"astId":856,"contract":"contracts/StakingRewards.sol:StakingRewards","label":"rewardPerTokenStored","offset":0,"slot":"6","type":"t_uint256"},{"astId":858,"contract":"contracts/StakingRewards.sol:StakingRewards","label":"totalSupply","offset":0,"slot":"7","type":"t_uint256"},{"astId":860,"contract":"contracts/StakingRewards.sol:StakingRewards","label":"MAX_AMOUNT_STAKE","offset":0,"slot":"8","type":"t_uint256"},{"astId":862,"contract":"contracts/StakingRewards.sol:StakingRewards","label":"MAX_NUM_OF_TOKENS_IN_POOL","offset":0,"slot":"9","type":"t_uint256"},{"astId":866,"contract":"contracts/StakingRewards.sol:StakingRewards","label":"userRewardPerTokenPaid","offset":0,"slot":"10","type":"t_mapping(t_address,t_uint256)"},{"astId":870,"contract":"contracts/StakingRewards.sol:StakingRewards","label":"rewards","offset":0,"slot":"11","type":"t_mapping(t_address,t_uint256)"},{"astId":874,"contract":"contracts/StakingRewards.sol:StakingRewards","label":"balanceOf","offset":0,"slot":"12","type":"t_mapping(t_address,t_uint256)"}],"types":{"t_address":{"encoding":"inplace","label":"address","numberOfBytes":"20"},"t_mapping(t_address,t_uint256)":{"encoding":"mapping","key":"t_address","label":"mapping(address => uint256)","numberOfBytes":"32","value":"t_uint256"},"t_uint256":{"encoding":"inplace","label":"uint256","numberOfBytes":"32"}}},"userdoc":{"kind":"user","methods":{"changePoolLimit(uint256)":{"notice":"Function that allows the owner to change the pool staking limit"},"changeStakeLimit(uint256)":{"notice":"Function that allows the owner to change the user staking limit"},"getTokensDepositedForRewards()":{"notice":"This function does not take unclaimed rewards under consideration"},"notifyRewardAmount(uint256,uint256)":{"notice":"Function that allows the owner to specify the rewards and duration for the next reward period"},"recoverERC20(address,uint256)":{"notice":"Function that allows the owner to return ERC20 tokens that were sent to the contract by accident"},"rewardPerToken()":{"notice":"Function that allows to calculate rewardPerTokenStored"},"stake(uint256)":{"notice":"Function that allows users to stake their tokens"},"withdraw(uint256)":{"notice":"Function that allows users to withdraw their tokens"},"withdrawReward()":{"notice":"Function that allows users to withdraw their winnings"}},"notice":"This contract allows for stake ERC20 tokens and receive ERC20 tokens as rewards","version":1}}}}